{
  "contractName": "Authorization",
  "abi": [
    {
      "inputs": [],
      "name": "owner",
      "outputs": [
        {
          "internalType": "address payable",
          "name": "",
          "type": "address"
        }
      ],
      "stateMutability": "view",
      "type": "function"
    },
    {
      "inputs": [
        {
          "internalType": "address",
          "name": "newOwner",
          "type": "address"
        }
      ],
      "name": "transferOwnership",
      "outputs": [],
      "stateMutability": "nonpayable",
      "type": "function"
    },
    {
      "inputs": [
        {
          "internalType": "string",
          "name": "source",
          "type": "string"
        }
      ],
      "name": "stringToBytes32",
      "outputs": [
        {
          "internalType": "bytes32",
          "name": "result",
          "type": "bytes32"
        }
      ],
      "stateMutability": "pure",
      "type": "function"
    },
    {
      "inputs": [
        {
          "internalType": "bytes32",
          "name": "_key",
          "type": "bytes32"
        }
      ],
      "name": "setKey",
      "outputs": [],
      "stateMutability": "nonpayable",
      "type": "function"
    },
    {
      "inputs": [
        {
          "internalType": "uint8",
          "name": "_id",
          "type": "uint8"
        }
      ],
      "name": "getKey",
      "outputs": [
        {
          "internalType": "bytes32",
          "name": "",
          "type": "bytes32"
        }
      ],
      "stateMutability": "view",
      "type": "function"
    },
    {
      "inputs": [
        {
          "internalType": "uint8",
          "name": "_id",
          "type": "uint8"
        }
      ],
      "name": "removeAccesser",
      "outputs": [],
      "stateMutability": "nonpayable",
      "type": "function"
    },
    {
      "inputs": [
        {
          "internalType": "uint8",
          "name": "_id",
          "type": "uint8"
        }
      ],
      "name": "addAccesser",
      "outputs": [],
      "stateMutability": "nonpayable",
      "type": "function"
    },
    {
      "inputs": [
        {
          "internalType": "uint8",
          "name": "_id",
          "type": "uint8"
        }
      ],
      "name": "getAccesser",
      "outputs": [
        {
          "components": [
            {
              "internalType": "bool",
              "name": "authorized",
              "type": "bool"
            }
          ],
          "internalType": "struct Authorization.Doctor",
          "name": "",
          "type": "tuple"
        }
      ],
      "stateMutability": "view",
      "type": "function"
    }
  ],
  "bytecode": "0x608060405234801561001057600080fd5b50336000806101000a81548173ffffffffffffffffffffffffffffffffffffffff021916908373ffffffffffffffffffffffffffffffffffffffff160217905550610c6b806100606000396000f3fe608060405234801561001057600080fd5b50600436106100885760003560e01c8063c3d2c3551161005b578063c3d2c35514610127578063c6e0193814610143578063cfb519281461015f578063f2fde38b1461018f57610088565b80635547610f1461008d578063764b4f27146100a95780638da5cb5b146100d9578063943923cd146100f7575b600080fd5b6100a760048036038101906100a291906107ea565b6101ab565b005b6100c360048036038101906100be91906107ea565b610271565b6040516100d0919061084e565b60405180910390f35b6100e161034d565b6040516100ee91906108aa565b60405180910390f35b610111600480360381019061010c91906107ea565b610371565b60405161011e91906108de565b60405180910390f35b610141600480360381019061013c9190610925565b61043c565b005b61015d600480360381019061015891906107ea565b6104d4565b005b61017960048036038101906101749190610a98565b610659565b60405161018691906108de565b60405180910390f35b6101a960048036038101906101a49190610b1f565b610682565b005b60008054906101000a900473ffffffffffffffffffffffffffffffffffffffff1673ffffffffffffffffffffffffffffffffffffffff163373ffffffffffffffffffffffffffffffffffffffff1614610239576040517f08c379a000000000000000000000000000000000000000000000000000000000815260040161023090610ba9565b60405180910390fd5b6001600260008360ff1660ff16815260200190815260200160002060000160006101000a81548160ff02191690831515021790555050565b610279610788565b60008054906101000a900473ffffffffffffffffffffffffffffffffffffffff1673ffffffffffffffffffffffffffffffffffffffff163373ffffffffffffffffffffffffffffffffffffffff1614610307576040517f08c379a00000000000000000000000000000000000000000000000000000000081526004016102fe90610ba9565b60405180910390fd5b600260008360ff1660ff1681526020019081526020016000206040518060200160405290816000820160009054906101000a900460ff1615151515815250509050919050565b60008054906101000a900473ffffffffffffffffffffffffffffffffffffffff1681565b60008160008054906101000a900473ffffffffffffffffffffffffffffffffffffffff1673ffffffffffffffffffffffffffffffffffffffff163373ffffffffffffffffffffffffffffffffffffffff161461043157600260008260ff1660ff16815260200190815260200160002060000160009054906101000a900460ff16610430576040517f08c379a000000000000000000000000000000000000000000000000000000000815260040161042790610c15565b60405180910390fd5b5b600154915050919050565b60008054906101000a900473ffffffffffffffffffffffffffffffffffffffff1673ffffffffffffffffffffffffffffffffffffffff163373ffffffffffffffffffffffffffffffffffffffff16146104ca576040517f08c379a00000000000000000000000000000000000000000000000000000000081526004016104c190610ba9565b60405180910390fd5b8060018190555050565b60008054906101000a900473ffffffffffffffffffffffffffffffffffffffff1673ffffffffffffffffffffffffffffffffffffffff163373ffffffffffffffffffffffffffffffffffffffff1614610562576040517f08c379a000000000000000000000000000000000000000000000000000000000815260040161055990610ba9565b60405180910390fd5b8060008054906101000a900473ffffffffffffffffffffffffffffffffffffffff1673ffffffffffffffffffffffffffffffffffffffff163373ffffffffffffffffffffffffffffffffffffffff161461062057600260008260ff1660ff16815260200190815260200160002060000160009054906101000a900460ff1661061f576040517f08c379a000000000000000000000000000000000000000000000000000000000815260040161061690610c15565b60405180910390fd5b5b6000600260008460ff1660ff16815260200190815260200160002060000160006101000a81548160ff0219169083151502179055505050565b6000808290506000815103610674576000801b91505061067d565b60208301519150505b919050565b60008054906101000a900473ffffffffffffffffffffffffffffffffffffffff1673ffffffffffffffffffffffffffffffffffffffff163373ffffffffffffffffffffffffffffffffffffffff1614610710576040517f08c379a000000000000000000000000000000000000000000000000000000000815260040161070790610ba9565b60405180910390fd5b600073ffffffffffffffffffffffffffffffffffffffff168173ffffffffffffffffffffffffffffffffffffffff161461078557806000806101000a81548173ffffffffffffffffffffffffffffffffffffffff021916908373ffffffffffffffffffffffffffffffffffffffff1602179055505b50565b60405180602001604052806000151581525090565b6000604051905090565b600080fd5b600080fd5b600060ff82169050919050565b6107c7816107b1565b81146107d257600080fd5b50565b6000813590506107e4816107be565b92915050565b600060208284031215610800576107ff6107a7565b5b600061080e848285016107d5565b91505092915050565b60008115159050919050565b61082c81610817565b82525050565b6020820160008201516108486000850182610823565b50505050565b60006020820190506108636000830184610832565b92915050565b600073ffffffffffffffffffffffffffffffffffffffff82169050919050565b600061089482610869565b9050919050565b6108a481610889565b82525050565b60006020820190506108bf600083018461089b565b92915050565b6000819050919050565b6108d8816108c5565b82525050565b60006020820190506108f360008301846108cf565b92915050565b610902816108c5565b811461090d57600080fd5b50565b60008135905061091f816108f9565b92915050565b60006020828403121561093b5761093a6107a7565b5b600061094984828501610910565b91505092915050565b600080fd5b600080fd5b6000601f19601f8301169050919050565b7f4e487b7100000000000000000000000000000000000000000000000000000000600052604160045260246000fd5b6109a58261095c565b810181811067ffffffffffffffff821117156109c4576109c361096d565b5b80604052505050565b60006109d761079d565b90506109e3828261099c565b919050565b600067ffffffffffffffff821115610a0357610a0261096d565b5b610a0c8261095c565b9050602081019050919050565b82818337600083830152505050565b6000610a3b610a36846109e8565b6109cd565b905082815260208101848484011115610a5757610a56610957565b5b610a62848285610a19565b509392505050565b600082601f830112610a7f57610a7e610952565b5b8135610a8f848260208601610a28565b91505092915050565b600060208284031215610aae57610aad6107a7565b5b600082013567ffffffffffffffff811115610acc57610acb6107ac565b5b610ad884828501610a6a565b91505092915050565b6000610aec82610869565b9050919050565b610afc81610ae1565b8114610b0757600080fd5b50565b600081359050610b1981610af3565b92915050565b600060208284031215610b3557610b346107a7565b5b6000610b4384828501610b0a565b91505092915050565b600082825260208201905092915050565b7f4f6e6c79206f776e657220616363657373000000000000000000000000000000600082015250565b6000610b93601183610b4c565b9150610b9e82610b5d565b602082019050919050565b60006020820190508181036000830152610bc281610b86565b9050919050565b7f4f6e6c7920417574686f72697a6564204163636573736f720000000000000000600082015250565b6000610bff601883610b4c565b9150610c0a82610bc9565b602082019050919050565b60006020820190508181036000830152610c2e81610bf2565b905091905056fea2646970667358221220d8f302d49003beb3921518f31ead96ebbf0c7e199eab0e4ec6e40e3bd3a8ac1664736f6c634300080d0033",
  "immutableReferences": {},
  "source": "// SPDX-License-Identifier: MIT\r\npragma solidity ^0.8.13;\r\n\r\nimport \"./Ownable.sol\";\r\n\r\ncontract Authorization is Ownable{\r\n    \r\n    bytes32 key;\r\n\r\n    struct Doctor {\r\n        bool authorized;\r\n    }\r\n    \r\n    mapping(uint8 => Doctor) private doctors;\r\n\r\n    function stringToBytes32(string memory source) public pure returns (bytes32 result) {\r\n        bytes memory tempEmptyStringTest = bytes(source);\r\n        if (tempEmptyStringTest.length == 0) {\r\n            return 0x0;\r\n        }\r\n\r\n        assembly {\r\n            result := mload(add(source, 32))\r\n        }\r\n    } \r\n\r\n    function setKey(bytes32 _key) public onlyOwner {\r\n        key = _key;\r\n    }\r\n\r\n    function getKey(uint8 _id) public view onlyAuthorizedAccesser(_id) returns(bytes32) {\r\n        return key;\r\n    }\r\n\r\n    function removeAccesser(uint8 _id) public onlyOwner onlyAuthorizedAccesser(_id) {\r\n        doctors[_id].authorized = false;\r\n    }\r\n\r\n    function addAccesser(uint8 _id) public onlyOwner {\r\n        doctors[_id].authorized = true;\r\n    }\r\n\r\n    function getAccesser(uint8 _id) public view onlyOwner returns (Doctor memory ){\r\n        return doctors[_id];\r\n    }\r\n\r\n   \r\n\r\n    modifier onlyAuthorizedAccesser(uint8 _id){\r\n        if (msg.sender != owner){\r\n            require(doctors[_id].authorized, \"Only Authorized Accessor\");\r\n        }\r\n        _;\r\n    }\r\n    \r\n    \r\n}",
  "sourcePath": "C:\\Users\\35383\\Documents\\Final Year Project\\DigitalHealth\\webapp\\truffle\\contracts\\Authorization.sol",
  "compiler": {
    "name": "solc",
    "version": "0.8.13+commit.abaa5c0e.Emscripten.clang"
  },
  "schemaVersion": "3.4.16",
  "updatedAt": "2023-12-02T11:13:43.193Z",
  "devdoc": {
    "kind": "dev",
    "methods": {},
    "version": 1
  },
  "userdoc": {
    "kind": "user",
    "methods": {},
    "version": 1
  }
}