{
  "contractName": "Authentication",
  "abi": [
    {
      "inputs": [
        {
          "internalType": "bytes32",
          "name": "password",
          "type": "bytes32"
        }
      ],
      "name": "login",
      "outputs": [
        {
          "internalType": "bytes32",
          "name": "",
          "type": "bytes32"
        }
      ],
      "stateMutability": "view",
      "type": "function",
      "constant": true
    },
    {
      "inputs": [
        {
          "internalType": "bytes32",
          "name": "name",
          "type": "bytes32"
        }
      ],
      "name": "signup",
      "outputs": [
        {
          "internalType": "bytes32",
          "name": "",
          "type": "bytes32"
        }
      ],
      "stateMutability": "payable",
      "type": "function",
      "payable": true
    },
    {
      "inputs": [
        {
          "internalType": "bytes32",
          "name": "name",
          "type": "bytes32"
        }
      ],
      "name": "update",
      "outputs": [
        {
          "internalType": "bytes32",
          "name": "",
          "type": "bytes32"
        }
      ],
      "stateMutability": "payable",
      "type": "function",
      "payable": true
    }
  ],
  "bytecode": "0x608060405234801561001057600080fd5b506104b3806100206000396000f3fe6080604052600436106100345760003560e01c80635c1397de14610039578063879281c4146100695780638b147245146100a6575b600080fd5b610053600480360381019061004e9190610426565b6100d6565b6040516100609190610462565b60405180910390f35b34801561007557600080fd5b50610090600480360381019061008b9190610426565b61020d565b60405161009d9190610462565b60405180910390f35b6100c060048036038101906100bb9190610426565b6102a8565b6040516100cd9190610462565b60405180910390f35b6000816000801b81036100e857600080fd5b6000801b6000803373ffffffffffffffffffffffffffffffffffffffff1673ffffffffffffffffffffffffffffffffffffffff16815260200190815260200160002060000154036101c257826000803373ffffffffffffffffffffffffffffffffffffffff1673ffffffffffffffffffffffffffffffffffffffff168152602001908152602001600020600001819055506000803373ffffffffffffffffffffffffffffffffffffffff1673ffffffffffffffffffffffffffffffffffffffff168152602001908152602001600020600001549150610207565b6000803373ffffffffffffffffffffffffffffffffffffffff1673ffffffffffffffffffffffffffffffffffffffff1681526020019081526020016000206000015491505b50919050565b60008060001b6000803373ffffffffffffffffffffffffffffffffffffffff1673ffffffffffffffffffffffffffffffffffffffff168152602001908152602001600020600001540361025f57600080fd5b6000803373ffffffffffffffffffffffffffffffffffffffff1673ffffffffffffffffffffffffffffffffffffffff168152602001908152602001600020600001549050919050565b6000816000801b81036102ba57600080fd5b6000801b6000803373ffffffffffffffffffffffffffffffffffffffff1673ffffffffffffffffffffffffffffffffffffffff168152602001908152602001600020600001540361030a57600080fd5b6000801b6000803373ffffffffffffffffffffffffffffffffffffffff1673ffffffffffffffffffffffffffffffffffffffff16815260200190815260200160002060000154146103e457826000803373ffffffffffffffffffffffffffffffffffffffff1673ffffffffffffffffffffffffffffffffffffffff168152602001908152602001600020600001819055506000803373ffffffffffffffffffffffffffffffffffffffff1673ffffffffffffffffffffffffffffffffffffffff1681526020019081526020016000206000015491506103e5565b5b50919050565b600080fd5b6000819050919050565b610403816103f0565b811461040e57600080fd5b50565b600081359050610420816103fa565b92915050565b60006020828403121561043c5761043b6103eb565b5b600061044a84828501610411565b91505092915050565b61045c816103f0565b82525050565b60006020820190506104776000830184610453565b9291505056fea26469706673582212206cc1bea0645b6973ca1207f9d38e52c6e0ffb2d70f61ab0a444bda38c1a6e50c64736f6c634300080d0033",
  "immutableReferences": {},
  "source": "// SPDX-License-Identifier: MIT\r\npragma solidity ^0.8.13;\r\n\r\nimport \"./Ownable.sol\";\r\n\r\ncontract Authentication {\r\n  \r\n    struct User {\r\n        bytes32 name;\r\n        bytes32 password;\r\n    }\r\n\r\n    mapping (address => User) private users;\r\n\r\n    uint private id; // Stores user id temporarily\r\n\r\n    // Authentication\r\n    modifier onlyValidName(bytes32 name) {\r\n        // Only valid names allowed\r\n\r\n        require(!(name == 0x0));\r\n        _;\r\n    }\r\n\r\n    modifier onlyExistingUser() {\r\n        // Check if user exists or terminate\r\n\r\n        require(!(users[msg.sender].name == 0x0));\r\n        _;\r\n    }\r\n\r\n    function login(bytes32 password) view public onlyExistingUser  returns (bytes32) {\r\n        return (users[msg.sender].name);\r\n    }\r\n\r\n    function signup(bytes32 name) public payable onlyValidName(name) returns (bytes32) {\r\n        // Check if user exists.\r\n        // If yes, return user name.\r\n        // If no, check if name was sent.\r\n        // If yes, create and return user.\r\n\r\n        if (users[msg.sender].name == 0x0)\r\n        {\r\n            users[msg.sender].name = name;\r\n\r\n            return (users[msg.sender].name);\r\n        }\r\n\r\n        return (users[msg.sender].name);\r\n    }\r\n\r\n    function update(bytes32 name) public payable onlyValidName(name) onlyExistingUser returns (bytes32) {\r\n        // Update user name.\r\n        if (users[msg.sender].name != 0x0)\r\n        {\r\n            users[msg.sender].name = name;\r\n\r\n            return (users[msg.sender].name);\r\n        }\r\n    }\r\n    \r\n}",
  "sourcePath": "C:\\Users\\35383\\Documents\\Final Year Project\\DigitalHealth\\webapp\\truffle\\contracts\\Authentication.sol",
  "compiler": {
    "name": "solc",
    "version": "0.8.13+commit.abaa5c0e.Emscripten.clang"
  },
  "schemaVersion": "3.4.16",
  "updatedAt": "2023-12-01T18:15:01.277Z",
  "networkType": "ethereum",
  "devdoc": {
    "kind": "dev",
    "methods": {},
    "version": 1
  },
  "userdoc": {
    "kind": "user",
    "methods": {},
    "version": 1
  }
}