{
  "contractName": "DigitalHealth",
  "abi": [
    {
      "inputs": [
        {
          "internalType": "string",
          "name": "source",
          "type": "string"
        }
      ],
      "name": "stringToBytes32",
      "outputs": [
        {
          "internalType": "bytes32",
          "name": "result",
          "type": "bytes32"
        }
      ],
      "stateMutability": "pure",
      "type": "function",
      "constant": true
    },
    {
      "inputs": [
        {
          "internalType": "bytes32",
          "name": "password",
          "type": "bytes32"
        }
      ],
      "name": "login",
      "outputs": [
        {
          "internalType": "bytes32",
          "name": "name",
          "type": "bytes32"
        }
      ],
      "stateMutability": "view",
      "type": "function",
      "constant": true
    },
    {
      "inputs": [
        {
          "internalType": "bytes32",
          "name": "name",
          "type": "bytes32"
        },
        {
          "internalType": "bytes32",
          "name": "email",
          "type": "bytes32"
        },
        {
          "internalType": "bytes32",
          "name": "password",
          "type": "bytes32"
        }
      ],
      "name": "signup",
      "outputs": [
        {
          "internalType": "bytes32",
          "name": "",
          "type": "bytes32"
        }
      ],
      "stateMutability": "nonpayable",
      "type": "function"
    },
    {
      "inputs": [
        {
          "internalType": "bytes32",
          "name": "name",
          "type": "bytes32"
        }
      ],
      "name": "update",
      "outputs": [
        {
          "internalType": "bytes32",
          "name": "value",
          "type": "bytes32"
        }
      ],
      "stateMutability": "nonpayable",
      "type": "function"
    },
    {
      "inputs": [
        {
          "internalType": "address",
          "name": "_user",
          "type": "address"
        },
        {
          "internalType": "bytes32",
          "name": "_key",
          "type": "bytes32"
        },
        {
          "internalType": "bytes16",
          "name": "_iv",
          "type": "bytes16"
        }
      ],
      "name": "setKey",
      "outputs": [],
      "stateMutability": "nonpayable",
      "type": "function"
    },
    {
      "inputs": [
        {
          "internalType": "address",
          "name": "_user",
          "type": "address"
        },
        {
          "internalType": "address",
          "name": "accessor",
          "type": "address"
        }
      ],
      "name": "getKey",
      "outputs": [
        {
          "internalType": "bytes32",
          "name": "",
          "type": "bytes32"
        },
        {
          "internalType": "bytes16",
          "name": "",
          "type": "bytes16"
        }
      ],
      "stateMutability": "view",
      "type": "function",
      "constant": true
    },
    {
      "inputs": [
        {
          "internalType": "address",
          "name": "accessor",
          "type": "address"
        },
        {
          "internalType": "bytes32",
          "name": "password",
          "type": "bytes32"
        }
      ],
      "name": "removeAccessor",
      "outputs": [],
      "stateMutability": "nonpayable",
      "type": "function"
    },
    {
      "inputs": [
        {
          "internalType": "address",
          "name": "accessor",
          "type": "address"
        },
        {
          "internalType": "bytes32",
          "name": "password",
          "type": "bytes32"
        }
      ],
      "name": "addAccessor",
      "outputs": [],
      "stateMutability": "nonpayable",
      "type": "function"
    },
    {
      "inputs": [
        {
          "internalType": "address",
          "name": "_user",
          "type": "address"
        },
        {
          "internalType": "address",
          "name": "accessor",
          "type": "address"
        }
      ],
      "name": "getAccessorAuthorization",
      "outputs": [
        {
          "internalType": "bool",
          "name": "authorized",
          "type": "bool"
        }
      ],
      "stateMutability": "view",
      "type": "function",
      "constant": true
    }
  ],
  "bytecode": "0x608060405234801561001057600080fd5b50336000806101000a81548173ffffffffffffffffffffffffffffffffffffffff021916908373ffffffffffffffffffffffffffffffffffffffff16021790555061158e806100606000396000f3fe608060405234801561001057600080fd5b50600436106100935760003560e01c8063690419d411610066578063690419d414610130578063879281c41461014c5780638b1472451461017c578063bc298553146101ac578063cfb51928146101dd57610093565b8063035675c5146100985780631a2dc634146100b45780635016a3b1146100e457806356a5562214610114575b600080fd5b6100b260048036038101906100ad9190610fb1565b61020d565b005b6100ce60048036038101906100c99190611004565b610351565b6040516100db9190611066565b60405180910390f35b6100fe60048036038101906100f99190611081565b61051c565b60405161010b91906110dc565b60405180910390f35b61012e600480360381019061012991906110f7565b610682565b005b61014a600480360381019061014591906110f7565b610875565b005b61016660048036038101906101619190611137565b610a67565b6040516101739190611066565b60405180910390f35b61019660048036038101906101919190611137565b610b8f565b6040516101a39190611066565b60405180910390f35b6101c660048036038101906101c19190611081565b610d0c565b6040516101d4929190611173565b60405180910390f35b6101f760048036038101906101f291906112e2565b610e88565b6040516102049190611066565b60405180910390f35b60008054906101000a900473ffffffffffffffffffffffffffffffffffffffff1673ffffffffffffffffffffffffffffffffffffffff163373ffffffffffffffffffffffffffffffffffffffff161461029b576040517f08c379a000000000000000000000000000000000000000000000000000000000815260040161029290611388565b60405180910390fd5b81600160008573ffffffffffffffffffffffffffffffffffffffff1673ffffffffffffffffffffffffffffffffffffffff1681526020019081526020016000206003018190555080600160008573ffffffffffffffffffffffffffffffffffffffff1673ffffffffffffffffffffffffffffffffffffffff16815260200190815260200160002060040160006101000a8154816fffffffffffffffffffffffffffffffff021916908360801c0217905550505050565b6000836000801b810361036357600080fd5b6000801b600160003373ffffffffffffffffffffffffffffffffffffffff1673ffffffffffffffffffffffffffffffffffffffff16815260200190815260200160002060000154036104ce5784600160003373ffffffffffffffffffffffffffffffffffffffff1673ffffffffffffffffffffffffffffffffffffffff1681526020019081526020016000206000018190555083600160003373ffffffffffffffffffffffffffffffffffffffff1673ffffffffffffffffffffffffffffffffffffffff1681526020019081526020016000206001018190555082600160003373ffffffffffffffffffffffffffffffffffffffff1673ffffffffffffffffffffffffffffffffffffffff16815260200190815260200160002060020181905550600160003373ffffffffffffffffffffffffffffffffffffffff1673ffffffffffffffffffffffffffffffffffffffff168152602001908152602001600020600001549150610514565b600160003373ffffffffffffffffffffffffffffffffffffffff1673ffffffffffffffffffffffffffffffffffffffff1681526020019081526020016000206000015491505b509392505050565b60008060009054906101000a900473ffffffffffffffffffffffffffffffffffffffff1673ffffffffffffffffffffffffffffffffffffffff163373ffffffffffffffffffffffffffffffffffffffff16146105ad576040517f08c379a00000000000000000000000000000000000000000000000000000000081526004016105a490611388565b60405180910390fd5b8173ffffffffffffffffffffffffffffffffffffffff168373ffffffffffffffffffffffffffffffffffffffff16036105e9576001905061067c565b600160008473ffffffffffffffffffffffffffffffffffffffff1673ffffffffffffffffffffffffffffffffffffffff16815260200190815260200160002060050160008373ffffffffffffffffffffffffffffffffffffffff1673ffffffffffffffffffffffffffffffffffffffff16815260200190815260200160002060000160009054906101000a900460ff1690505b92915050565b6000801b600160003373ffffffffffffffffffffffffffffffffffffffff1673ffffffffffffffffffffffffffffffffffffffff1681526020019081526020016000206000015403610709576040517f08c379a0000000000000000000000000000000000000000000000000000000008152600401610700906113f4565b60405180910390fd5b806000801b810361074f576040517f08c379a000000000000000000000000000000000000000000000000000000000815260040161074690611460565b60405180910390fd5b8180600160003373ffffffffffffffffffffffffffffffffffffffff1673ffffffffffffffffffffffffffffffffffffffff16815260200190815260200160002060020154146107d4576040517f08c379a00000000000000000000000000000000000000000000000000000000081526004016107cb906114cc565b60405180910390fd5b6000600160003373ffffffffffffffffffffffffffffffffffffffff1673ffffffffffffffffffffffffffffffffffffffff16815260200190815260200160002060050160008673ffffffffffffffffffffffffffffffffffffffff1673ffffffffffffffffffffffffffffffffffffffff16815260200190815260200160002060000160006101000a81548160ff02191690831515021790555050505050565b6000801b600160003373ffffffffffffffffffffffffffffffffffffffff1673ffffffffffffffffffffffffffffffffffffffff16815260200190815260200160002060000154036108fc576040517f08c379a00000000000000000000000000000000000000000000000000000000081526004016108f3906113f4565b60405180910390fd5b806000801b8103610942576040517f08c379a000000000000000000000000000000000000000000000000000000000815260040161093990611460565b60405180910390fd5b8180600160003373ffffffffffffffffffffffffffffffffffffffff1673ffffffffffffffffffffffffffffffffffffffff16815260200190815260200160002060020154146109c7576040517f08c379a00000000000000000000000000000000000000000000000000000000081526004016109be906114cc565b60405180910390fd5b60018060003373ffffffffffffffffffffffffffffffffffffffff1673ffffffffffffffffffffffffffffffffffffffff16815260200190815260200160002060050160008673ffffffffffffffffffffffffffffffffffffffff1673ffffffffffffffffffffffffffffffffffffffff16815260200190815260200160002060000160006101000a81548160ff02191690831515021790555050505050565b60008060001b600160003373ffffffffffffffffffffffffffffffffffffffff1673ffffffffffffffffffffffffffffffffffffffff1681526020019081526020016000206000015403610af0576040517f08c379a0000000000000000000000000000000000000000000000000000000008152600401610ae7906113f4565b60405180910390fd5b81600160003373ffffffffffffffffffffffffffffffffffffffff1673ffffffffffffffffffffffffffffffffffffffff1681526020019081526020016000206002015403610b8357600160003373ffffffffffffffffffffffffffffffffffffffff1673ffffffffffffffffffffffffffffffffffffffff168152602001908152602001600020600001549050610b8a565b6000801b90505b919050565b6000816000801b8103610ba157600080fd5b6000801b600160003373ffffffffffffffffffffffffffffffffffffffff1673ffffffffffffffffffffffffffffffffffffffff1681526020019081526020016000206000015403610c28576040517f08c379a0000000000000000000000000000000000000000000000000000000008152600401610c1f906113f4565b60405180910390fd5b6000801b600160003373ffffffffffffffffffffffffffffffffffffffff1673ffffffffffffffffffffffffffffffffffffffff1681526020019081526020016000206000015414610d055782600160003373ffffffffffffffffffffffffffffffffffffffff1673ffffffffffffffffffffffffffffffffffffffff16815260200190815260200160002060000181905550600160003373ffffffffffffffffffffffffffffffffffffffff1673ffffffffffffffffffffffffffffffffffffffff168152602001908152602001600020600001549150610d06565b5b50919050565b60008060008054906101000a900473ffffffffffffffffffffffffffffffffffffffff1673ffffffffffffffffffffffffffffffffffffffff163373ffffffffffffffffffffffffffffffffffffffff1614610d9d576040517f08c379a0000000000000000000000000000000000000000000000000000000008152600401610d9490611388565b60405180910390fd5b8383610da9828261051c565b610de8576040517f08c379a0000000000000000000000000000000000000000000000000000000008152600401610ddf90611538565b60405180910390fd5b600160008773ffffffffffffffffffffffffffffffffffffffff1673ffffffffffffffffffffffffffffffffffffffff16815260200190815260200160002060030154600160008873ffffffffffffffffffffffffffffffffffffffff1673ffffffffffffffffffffffffffffffffffffffff16815260200190815260200160002060040160009054906101000a900460801b9350935050509250929050565b6000808290506000815103610ea3576000801b915050610eac565b60208301519150505b919050565b6000604051905090565b600080fd5b600080fd5b600073ffffffffffffffffffffffffffffffffffffffff82169050919050565b6000610ef082610ec5565b9050919050565b610f0081610ee5565b8114610f0b57600080fd5b50565b600081359050610f1d81610ef7565b92915050565b6000819050919050565b610f3681610f23565b8114610f4157600080fd5b50565b600081359050610f5381610f2d565b92915050565b60007fffffffffffffffffffffffffffffffff0000000000000000000000000000000082169050919050565b610f8e81610f59565b8114610f9957600080fd5b50565b600081359050610fab81610f85565b92915050565b600080600060608486031215610fca57610fc9610ebb565b5b6000610fd886828701610f0e565b9350506020610fe986828701610f44565b9250506040610ffa86828701610f9c565b9150509250925092565b60008060006060848603121561101d5761101c610ebb565b5b600061102b86828701610f44565b935050602061103c86828701610f44565b925050604061104d86828701610f44565b9150509250925092565b61106081610f23565b82525050565b600060208201905061107b6000830184611057565b92915050565b6000806040838503121561109857611097610ebb565b5b60006110a685828601610f0e565b92505060206110b785828601610f0e565b9150509250929050565b60008115159050919050565b6110d6816110c1565b82525050565b60006020820190506110f160008301846110cd565b92915050565b6000806040838503121561110e5761110d610ebb565b5b600061111c85828601610f0e565b925050602061112d85828601610f44565b9150509250929050565b60006020828403121561114d5761114c610ebb565b5b600061115b84828501610f44565b91505092915050565b61116d81610f59565b82525050565b60006040820190506111886000830185611057565b6111956020830184611164565b9392505050565b600080fd5b600080fd5b6000601f19601f8301169050919050565b7f4e487b7100000000000000000000000000000000000000000000000000000000600052604160045260246000fd5b6111ef826111a6565b810181811067ffffffffffffffff8211171561120e5761120d6111b7565b5b80604052505050565b6000611221610eb1565b905061122d82826111e6565b919050565b600067ffffffffffffffff82111561124d5761124c6111b7565b5b611256826111a6565b9050602081019050919050565b82818337600083830152505050565b600061128561128084611232565b611217565b9050828152602081018484840111156112a1576112a06111a1565b5b6112ac848285611263565b509392505050565b600082601f8301126112c9576112c861119c565b5b81356112d9848260208601611272565b91505092915050565b6000602082840312156112f8576112f7610ebb565b5b600082013567ffffffffffffffff81111561131657611315610ec0565b5b611322848285016112b4565b91505092915050565b600082825260208201905092915050565b7f4f6e6c79206f776e657220616363657373000000000000000000000000000000600082015250565b600061137260118361132b565b915061137d8261133c565b602082019050919050565b600060208201905081810360008301526113a181611365565b9050919050565b7f5573657220646f6573206e6f7420657869737400000000000000000000000000600082015250565b60006113de60138361132b565b91506113e9826113a8565b602082019050919050565b6000602082019050818103600083015261140d816113d1565b9050919050565b7f496e76616c69642070617373776f726400000000000000000000000000000000600082015250565b600061144a60108361132b565b915061145582611414565b602082019050919050565b600060208201905081810360008301526114798161143d565b9050919050565b7f4f6e6c792061757468656e746963617465642075736572000000000000000000600082015250565b60006114b660178361132b565b91506114c182611480565b602082019050919050565b600060208201905081810360008301526114e5816114a9565b9050919050565b7f4f6e6c7920417574686f72697a6564204163636573736f720000000000000000600082015250565b600061152260188361132b565b915061152d826114ec565b602082019050919050565b6000602082019050818103600083015261155181611515565b905091905056fea26469706673582212206283aa4a2cf9e681fa62c7cce3093ed5190766d654b502f97d13996d79255d1064736f6c634300080d0033",
  "immutableReferences": {},
  "source": "// SPDX-License-Identifier: MIT\r\npragma solidity ^0.8.13;\r\n\r\nimport \"./Ownable.sol\";\r\n\r\ncontract DigitalHealth is Ownable {\r\n    \r\n    struct Accessor {\r\n        bool authorized;\r\n    }\r\n\r\n    struct User {\r\n        bytes32 name;\r\n        bytes32 email;\r\n        bytes32 password;\r\n        bytes32 key;\r\n        bytes16 iv;\r\n        mapping(address => Accessor) accessors;\r\n    }\r\n\r\n    mapping (address => User) private users;\r\n\r\n    function stringToBytes32(string memory source) public pure returns (bytes32 result) {\r\n        bytes memory tempEmptyStringTest = bytes(source);\r\n        if (tempEmptyStringTest.length == 0) {\r\n            return 0x0;\r\n        }\r\n\r\n        assembly {\r\n            result := mload(add(source, 32))\r\n        }\r\n    }\r\n\r\n    // Authentication\r\n    modifier onlyValidName(bytes32 name) {\r\n        // Only valid names allowed\r\n        require(!(name == 0x0));\r\n        _;\r\n    }\r\n\r\n    modifier onlyExistingUser() {\r\n        // Check if user exists or terminate\r\n        require(!(users[msg.sender].name == 0x0), \"User does not exist\");\r\n        _;\r\n    }\r\n\r\n    modifier onlyAuthenticatedUser(bytes32 password){\r\n        require(users[msg.sender].password == password, 'Only authenticated user');\r\n        _;\r\n    }\r\n\r\n    function login(bytes32 password) view public onlyExistingUser returns (bytes32 name) {\r\n        if (users[msg.sender].password == password)\r\n            return (users[msg.sender].name);\r\n        return 0x0;\r\n    }\r\n\r\n    function signup(bytes32 name, bytes32 email, bytes32 password) public onlyValidName(name) returns (bytes32) {\r\n        // Check if user exists.\r\n        // If yes, return user name.\r\n        // If no, check if name was sent.\r\n        // If yes, create and return user.\r\n\r\n        if (users[msg.sender].name == 0x0)\r\n        {\r\n            users[msg.sender].name = name;\r\n            users[msg.sender].email = email;\r\n            users[msg.sender].password = password;\r\n            return (users[msg.sender].name);\r\n        }\r\n\r\n        return (users[msg.sender].name);\r\n    }\r\n\r\n    function update(bytes32 name) public onlyValidName(name) onlyExistingUser returns (bytes32 value) {\r\n        // Update user name.\r\n        if (users[msg.sender].name != 0x0)\r\n        {\r\n            users[msg.sender].name = name;\r\n\r\n            return (users[msg.sender].name);\r\n        }\r\n    }\r\n    \r\n    function setKey(address _user, bytes32 _key, bytes16 _iv) public onlyOwner {\r\n        users[_user].key = _key;\r\n        users[_user].iv = _iv;\r\n    }\r\n\r\n    function getKey(address _user, address accessor) public view onlyOwner onlyAuthorizedAccessor(_user, accessor)  returns(bytes32, bytes16) {\r\n        return (users[_user].key, users[_user].iv);\r\n    }\r\n\r\n    // add modifier to check existence of accessor\r\n\r\n    function removeAccessor(address accessor, bytes32 password) public onlyExistingUser onlyValidPassword(password) onlyAuthenticatedUser(password) {\r\n        users[msg.sender].accessors[accessor].authorized = false;\r\n    }\r\n\r\n    function addAccessor(address accessor, bytes32 password) public onlyExistingUser onlyValidPassword(password) onlyAuthenticatedUser(password) {\r\n        users[msg.sender].accessors[accessor].authorized = true;\r\n    }\r\n\r\n    function getAccessorAuthorization(address _user, address accessor) public view onlyOwner returns (bool authorized){\r\n        if (_user == accessor){\r\n            return true;\r\n        }\r\n        return users[_user].accessors[accessor].authorized;\r\n    }\r\n\r\n    modifier onlyAuthorizedAccessor(address _user, address accessor) {\r\n        require(getAccessorAuthorization(_user, accessor), \"Only Authorized Accessor\");\r\n        _;\r\n    }\r\n\r\n    modifier onlyValidPassword(bytes32 password){\r\n        require(!(password == 0x0), 'Invalid password');\r\n        _;\r\n    }\r\n\r\n\r\n}",
  "sourcePath": "C:\\Users\\35383\\Documents\\Final Year Project\\DigitalHealth\\webapp\\truffle\\contracts\\DigitalHealth.sol",
  "compiler": {
    "name": "solc",
    "version": "0.8.13+commit.abaa5c0e.Emscripten.clang"
  },
  "schemaVersion": "3.4.16",
  "updatedAt": "2024-01-01T16:33:01.749Z",
  "networkType": "ethereum",
  "devdoc": {
    "kind": "dev",
    "methods": {},
    "version": 1
  },
  "userdoc": {
    "kind": "user",
    "methods": {},
    "version": 1
  }
}