{
  "contractName": "DigitalHealth",
  "abi": [
    {
      "inputs": [
        {
          "internalType": "string",
          "name": "source",
          "type": "string"
        }
      ],
      "name": "stringToBytes32",
      "outputs": [
        {
          "internalType": "bytes32",
          "name": "result",
          "type": "bytes32"
        }
      ],
      "stateMutability": "pure",
      "type": "function",
      "constant": true
    },
    {
      "inputs": [
        {
          "internalType": "bytes32",
          "name": "email",
          "type": "bytes32"
        },
        {
          "internalType": "bytes32",
          "name": "password",
          "type": "bytes32"
        }
      ],
      "name": "login",
      "outputs": [
        {
          "internalType": "bytes32",
          "name": "name",
          "type": "bytes32"
        }
      ],
      "stateMutability": "view",
      "type": "function",
      "constant": true
    },
    {
      "inputs": [
        {
          "internalType": "address",
          "name": "u",
          "type": "address"
        }
      ],
      "name": "getUser",
      "outputs": [
        {
          "internalType": "bytes32",
          "name": "name",
          "type": "bytes32"
        },
        {
          "internalType": "bytes32",
          "name": "email",
          "type": "bytes32"
        },
        {
          "internalType": "bytes32",
          "name": "password",
          "type": "bytes32"
        },
        {
          "internalType": "bytes32",
          "name": "key",
          "type": "bytes32"
        },
        {
          "internalType": "bytes16",
          "name": "iv",
          "type": "bytes16"
        }
      ],
      "stateMutability": "view",
      "type": "function",
      "constant": true
    },
    {
      "inputs": [
        {
          "internalType": "bytes32",
          "name": "name",
          "type": "bytes32"
        },
        {
          "internalType": "bytes32",
          "name": "email",
          "type": "bytes32"
        },
        {
          "internalType": "bytes32",
          "name": "password",
          "type": "bytes32"
        }
      ],
      "name": "signup",
      "outputs": [
        {
          "internalType": "bytes32",
          "name": "username",
          "type": "bytes32"
        }
      ],
      "stateMutability": "nonpayable",
      "type": "function"
    },
    {
      "inputs": [
        {
          "internalType": "address",
          "name": "_user",
          "type": "address"
        },
        {
          "internalType": "bytes32",
          "name": "_key",
          "type": "bytes32"
        },
        {
          "internalType": "bytes16",
          "name": "_iv",
          "type": "bytes16"
        }
      ],
      "name": "setKey",
      "outputs": [],
      "stateMutability": "nonpayable",
      "type": "function"
    },
    {
      "inputs": [
        {
          "internalType": "address",
          "name": "_user",
          "type": "address"
        },
        {
          "internalType": "address",
          "name": "accessor",
          "type": "address"
        }
      ],
      "name": "getKey",
      "outputs": [
        {
          "internalType": "bytes32",
          "name": "",
          "type": "bytes32"
        },
        {
          "internalType": "bytes16",
          "name": "",
          "type": "bytes16"
        }
      ],
      "stateMutability": "view",
      "type": "function",
      "constant": true
    },
    {
      "inputs": [
        {
          "internalType": "address",
          "name": "accessor",
          "type": "address"
        },
        {
          "internalType": "bytes32",
          "name": "password",
          "type": "bytes32"
        }
      ],
      "name": "removeAccessor",
      "outputs": [],
      "stateMutability": "nonpayable",
      "type": "function"
    },
    {
      "inputs": [
        {
          "internalType": "address",
          "name": "accessor",
          "type": "address"
        },
        {
          "internalType": "bytes32",
          "name": "password",
          "type": "bytes32"
        }
      ],
      "name": "addAccessor",
      "outputs": [],
      "stateMutability": "nonpayable",
      "type": "function"
    },
    {
      "inputs": [
        {
          "internalType": "address",
          "name": "_user",
          "type": "address"
        },
        {
          "internalType": "address",
          "name": "accessor",
          "type": "address"
        }
      ],
      "name": "getAccessorAuthorization",
      "outputs": [
        {
          "internalType": "bool",
          "name": "authorized",
          "type": "bool"
        }
      ],
      "stateMutability": "view",
      "type": "function",
      "constant": true
    }
  ],
  "bytecode": "0x608060405234801561001057600080fd5b50336000806101000a81548173ffffffffffffffffffffffffffffffffffffffff021916908373ffffffffffffffffffffffffffffffffffffffff1602179055506118e4806100606000396000f3fe608060405234801561001057600080fd5b50600436106100935760003560e01c8063635a9f2211610066578063635a9f2214610130578063690419d4146101605780636f77926b1461017c578063bc298553146101b0578063cfb51928146101e157610093565b8063035675c5146100985780631a2dc634146100b45780635016a3b1146100e457806356a5562214610114575b600080fd5b6100b260048036038101906100ad9190611130565b610211565b005b6100ce60048036038101906100c99190611183565b610355565b6040516100db91906111e5565b60405180910390f35b6100fe60048036038101906100f99190611200565b610556565b60405161010b919061125b565b60405180910390f35b61012e60048036038101906101299190611276565b6106bc565b005b61014a600480360381019061014591906112b6565b6108b1565b60405161015791906111e5565b60405180910390f35b61017a60048036038101906101759190611276565b610a91565b005b610196600480360381019061019191906112f6565b610c85565b6040516101a7959493929190611332565b60405180910390f35b6101ca60048036038101906101c59190611200565b610e8b565b6040516101d8929190611385565b60405180910390f35b6101fb60048036038101906101f691906114f4565b611007565b60405161020891906111e5565b60405180910390f35b60008054906101000a900473ffffffffffffffffffffffffffffffffffffffff1673ffffffffffffffffffffffffffffffffffffffff163373ffffffffffffffffffffffffffffffffffffffff161461029f576040517f08c379a00000000000000000000000000000000000000000000000000000000081526004016102969061159a565b60405180910390fd5b81600160008573ffffffffffffffffffffffffffffffffffffffff1673ffffffffffffffffffffffffffffffffffffffff1681526020019081526020016000206003018190555080600160008573ffffffffffffffffffffffffffffffffffffffff1673ffffffffffffffffffffffffffffffffffffffff16815260200190815260200160002060040160006101000a8154816fffffffffffffffffffffffffffffffff021916908360801c0217905550505050565b6000836000801b810361039d576040517f08c379a000000000000000000000000000000000000000000000000000000000815260040161039490611606565b60405180910390fd5b6000801b600160003373ffffffffffffffffffffffffffffffffffffffff1673ffffffffffffffffffffffffffffffffffffffff16815260200190815260200160002060000154036105085784600160003373ffffffffffffffffffffffffffffffffffffffff1673ffffffffffffffffffffffffffffffffffffffff1681526020019081526020016000206000018190555083600160003373ffffffffffffffffffffffffffffffffffffffff1673ffffffffffffffffffffffffffffffffffffffff1681526020019081526020016000206001018190555082600160003373ffffffffffffffffffffffffffffffffffffffff1673ffffffffffffffffffffffffffffffffffffffff16815260200190815260200160002060020181905550600160003373ffffffffffffffffffffffffffffffffffffffff1673ffffffffffffffffffffffffffffffffffffffff16815260200190815260200160002060000154915061054e565b600160003373ffffffffffffffffffffffffffffffffffffffff1673ffffffffffffffffffffffffffffffffffffffff1681526020019081526020016000206000015491505b509392505050565b60008060009054906101000a900473ffffffffffffffffffffffffffffffffffffffff1673ffffffffffffffffffffffffffffffffffffffff163373ffffffffffffffffffffffffffffffffffffffff16146105e7576040517f08c379a00000000000000000000000000000000000000000000000000000000081526004016105de9061159a565b60405180910390fd5b8173ffffffffffffffffffffffffffffffffffffffff168373ffffffffffffffffffffffffffffffffffffffff160361062357600190506106b6565b600160008473ffffffffffffffffffffffffffffffffffffffff1673ffffffffffffffffffffffffffffffffffffffff16815260200190815260200160002060050160008373ffffffffffffffffffffffffffffffffffffffff1673ffffffffffffffffffffffffffffffffffffffff16815260200190815260200160002060000160009054906101000a900460ff1690505b92915050565b816000801b600160008373ffffffffffffffffffffffffffffffffffffffff1673ffffffffffffffffffffffffffffffffffffffff1681526020019081526020016000206000015403610744576040517f08c379a000000000000000000000000000000000000000000000000000000000815260040161073b90611672565b60405180910390fd5b816000801b810361078a576040517f08c379a0000000000000000000000000000000000000000000000000000000008152600401610781906116de565b60405180910390fd5b8280600160003373ffffffffffffffffffffffffffffffffffffffff1673ffffffffffffffffffffffffffffffffffffffff168152602001908152602001600020600201541461080f576040517f08c379a00000000000000000000000000000000000000000000000000000000081526004016108069061174a565b60405180910390fd5b6000600160003373ffffffffffffffffffffffffffffffffffffffff1673ffffffffffffffffffffffffffffffffffffffff16815260200190815260200160002060050160008773ffffffffffffffffffffffffffffffffffffffff1673ffffffffffffffffffffffffffffffffffffffff16815260200190815260200160002060000160006101000a81548160ff0219169083151502179055505050505050565b60008060001b600160003373ffffffffffffffffffffffffffffffffffffffff1673ffffffffffffffffffffffffffffffffffffffff168152602001908152602001600020600001540361093a576040517f08c379a0000000000000000000000000000000000000000000000000000000008152600401610931906117b6565b60405180910390fd5b8280600160003373ffffffffffffffffffffffffffffffffffffffff1673ffffffffffffffffffffffffffffffffffffffff16815260200190815260200160002060010154146109bf576040517f08c379a00000000000000000000000000000000000000000000000000000000081526004016109b690611822565b60405180910390fd5b8280600160003373ffffffffffffffffffffffffffffffffffffffff1673ffffffffffffffffffffffffffffffffffffffff1681526020019081526020016000206002015414610a44576040517f08c379a0000000000000000000000000000000000000000000000000000000008152600401610a3b9061174a565b60405180910390fd5b600160003373ffffffffffffffffffffffffffffffffffffffff1673ffffffffffffffffffffffffffffffffffffffff168152602001908152602001600020600001549250505092915050565b816000801b600160008373ffffffffffffffffffffffffffffffffffffffff1673ffffffffffffffffffffffffffffffffffffffff1681526020019081526020016000206000015403610b19576040517f08c379a0000000000000000000000000000000000000000000000000000000008152600401610b1090611672565b60405180910390fd5b816000801b8103610b5f576040517f08c379a0000000000000000000000000000000000000000000000000000000008152600401610b56906116de565b60405180910390fd5b8280600160003373ffffffffffffffffffffffffffffffffffffffff1673ffffffffffffffffffffffffffffffffffffffff1681526020019081526020016000206002015414610be4576040517f08c379a0000000000000000000000000000000000000000000000000000000008152600401610bdb9061174a565b60405180910390fd5b60018060003373ffffffffffffffffffffffffffffffffffffffff1673ffffffffffffffffffffffffffffffffffffffff16815260200190815260200160002060050160008773ffffffffffffffffffffffffffffffffffffffff1673ffffffffffffffffffffffffffffffffffffffff16815260200190815260200160002060000160006101000a81548160ff0219169083151502179055505050505050565b60008060008060008060009054906101000a900473ffffffffffffffffffffffffffffffffffffffff1673ffffffffffffffffffffffffffffffffffffffff163373ffffffffffffffffffffffffffffffffffffffff1614610d1c576040517f08c379a0000000000000000000000000000000000000000000000000000000008152600401610d139061159a565b60405180910390fd5b600160008773ffffffffffffffffffffffffffffffffffffffff1673ffffffffffffffffffffffffffffffffffffffff16815260200190815260200160002060000154600160008873ffffffffffffffffffffffffffffffffffffffff1673ffffffffffffffffffffffffffffffffffffffff16815260200190815260200160002060010154600160008973ffffffffffffffffffffffffffffffffffffffff1673ffffffffffffffffffffffffffffffffffffffff16815260200190815260200160002060020154600160008a73ffffffffffffffffffffffffffffffffffffffff1673ffffffffffffffffffffffffffffffffffffffff16815260200190815260200160002060030154600160008b73ffffffffffffffffffffffffffffffffffffffff1673ffffffffffffffffffffffffffffffffffffffff16815260200190815260200160002060040160009054906101000a900460801b9450945094509450945091939590929450565b60008060008054906101000a900473ffffffffffffffffffffffffffffffffffffffff1673ffffffffffffffffffffffffffffffffffffffff163373ffffffffffffffffffffffffffffffffffffffff1614610f1c576040517f08c379a0000000000000000000000000000000000000000000000000000000008152600401610f139061159a565b60405180910390fd5b8383610f288282610556565b610f67576040517f08c379a0000000000000000000000000000000000000000000000000000000008152600401610f5e9061188e565b60405180910390fd5b600160008773ffffffffffffffffffffffffffffffffffffffff1673ffffffffffffffffffffffffffffffffffffffff16815260200190815260200160002060030154600160008873ffffffffffffffffffffffffffffffffffffffff1673ffffffffffffffffffffffffffffffffffffffff16815260200190815260200160002060040160009054906101000a900460801b9350935050509250929050565b6000808290506000815103611022576000801b91505061102b565b60208301519150505b919050565b6000604051905090565b600080fd5b600080fd5b600073ffffffffffffffffffffffffffffffffffffffff82169050919050565b600061106f82611044565b9050919050565b61107f81611064565b811461108a57600080fd5b50565b60008135905061109c81611076565b92915050565b6000819050919050565b6110b5816110a2565b81146110c057600080fd5b50565b6000813590506110d2816110ac565b92915050565b60007fffffffffffffffffffffffffffffffff0000000000000000000000000000000082169050919050565b61110d816110d8565b811461111857600080fd5b50565b60008135905061112a81611104565b92915050565b6000806000606084860312156111495761114861103a565b5b60006111578682870161108d565b9350506020611168868287016110c3565b92505060406111798682870161111b565b9150509250925092565b60008060006060848603121561119c5761119b61103a565b5b60006111aa868287016110c3565b93505060206111bb868287016110c3565b92505060406111cc868287016110c3565b9150509250925092565b6111df816110a2565b82525050565b60006020820190506111fa60008301846111d6565b92915050565b600080604083850312156112175761121661103a565b5b60006112258582860161108d565b92505060206112368582860161108d565b9150509250929050565b60008115159050919050565b61125581611240565b82525050565b6000602082019050611270600083018461124c565b92915050565b6000806040838503121561128d5761128c61103a565b5b600061129b8582860161108d565b92505060206112ac858286016110c3565b9150509250929050565b600080604083850312156112cd576112cc61103a565b5b60006112db858286016110c3565b92505060206112ec858286016110c3565b9150509250929050565b60006020828403121561130c5761130b61103a565b5b600061131a8482850161108d565b91505092915050565b61132c816110d8565b82525050565b600060a08201905061134760008301886111d6565b61135460208301876111d6565b61136160408301866111d6565b61136e60608301856111d6565b61137b6080830184611323565b9695505050505050565b600060408201905061139a60008301856111d6565b6113a76020830184611323565b9392505050565b600080fd5b600080fd5b6000601f19601f8301169050919050565b7f4e487b7100000000000000000000000000000000000000000000000000000000600052604160045260246000fd5b611401826113b8565b810181811067ffffffffffffffff821117156114205761141f6113c9565b5b80604052505050565b6000611433611030565b905061143f82826113f8565b919050565b600067ffffffffffffffff82111561145f5761145e6113c9565b5b611468826113b8565b9050602081019050919050565b82818337600083830152505050565b600061149761149284611444565b611429565b9050828152602081018484840111156114b3576114b26113b3565b5b6114be848285611475565b509392505050565b600082601f8301126114db576114da6113ae565b5b81356114eb848260208601611484565b91505092915050565b60006020828403121561150a5761150961103a565b5b600082013567ffffffffffffffff8111156115285761152761103f565b5b611534848285016114c6565b91505092915050565b600082825260208201905092915050565b7f4f6e6c79206f776e657220616363657373000000000000000000000000000000600082015250565b600061158460118361153d565b915061158f8261154e565b602082019050919050565b600060208201905081810360008301526115b381611577565b9050919050565b7f557365726e616d6520697320656d707479000000000000000000000000000000600082015250565b60006115f060118361153d565b91506115fb826115ba565b602082019050919050565b6000602082019050818103600083015261161f816115e3565b9050919050565b7f4163636573736f7220646f6573206e6f74206578697374000000000000000000600082015250565b600061165c60178361153d565b915061166782611626565b602082019050919050565b6000602082019050818103600083015261168b8161164f565b9050919050565b7f496e76616c69642070617373776f726400000000000000000000000000000000600082015250565b60006116c860108361153d565b91506116d382611692565b602082019050919050565b600060208201905081810360008301526116f7816116bb565b9050919050565b7f496e636f72726563742070617373776f72640000000000000000000000000000600082015250565b600061173460128361153d565b915061173f826116fe565b602082019050919050565b6000602082019050818103600083015261176381611727565b9050919050565b7f5573657220646f6573206e6f7420657869737400000000000000000000000000600082015250565b60006117a060138361153d565b91506117ab8261176a565b602082019050919050565b600060208201905081810360008301526117cf81611793565b9050919050565b7f496e636f727265637420656d61696c0000000000000000000000000000000000600082015250565b600061180c600f8361153d565b9150611817826117d6565b602082019050919050565b6000602082019050818103600083015261183b816117ff565b9050919050565b7f4f6e6c7920417574686f72697a6564204163636573736f720000000000000000600082015250565b600061187860188361153d565b915061188382611842565b602082019050919050565b600060208201905081810360008301526118a78161186b565b905091905056fea264697066735822122013a6f5c63e9176fd80a29ddc3c8a162fd159878951398369952aac8ed313292764736f6c634300080d0033",
  "immutableReferences": {},
  "source": "// SPDX-License-Identifier: MIT\r\npragma solidity ^0.8.13;\r\n\r\nimport \"./Ownable.sol\";\r\n\r\ncontract DigitalHealth is Ownable {\r\n    \r\n    struct Accessor {\r\n        bool authorized;\r\n    }\r\n\r\n    struct User {\r\n        bytes32 name;\r\n        bytes32 email;\r\n        bytes32 password;\r\n        bytes32 key;\r\n        bytes16 iv;\r\n        mapping(address => Accessor) accessors;\r\n    }\r\n\r\n    mapping (address => User) private users;\r\n\r\n    function stringToBytes32(string memory source) public pure returns (bytes32 result) {\r\n        bytes memory tempEmptyStringTest = bytes(source);\r\n        if (tempEmptyStringTest.length == 0) {\r\n            return 0x0;\r\n        }\r\n\r\n        assembly {\r\n            result := mload(add(source, 32))\r\n        }\r\n    }\r\n\r\n    // Authentication\r\n    modifier onlyValidName(bytes32 name) {\r\n        // Only valid names allowed\r\n        require(!(name == 0x0), \"Username is empty\");\r\n        _;\r\n    }\r\n\r\n    modifier onlyExistingAccessor(address user){\r\n        require(!(users[user].name == 0x0), \"Accessor does not exist\");\r\n        _;\r\n    }\r\n\r\n    modifier onlyExistingUser() {\r\n        // Check if user exists or terminate\r\n        require(!(users[msg.sender].name == 0x0), \"User does not exist\");\r\n        _;\r\n    }\r\n\r\n    modifier onlyAuthorizedAccessor(address _user, address accessor) {\r\n        require(getAccessorAuthorization(_user, accessor), \"Only Authorized Accessor\");\r\n        _;\r\n    }\r\n\r\n    modifier onlyValidPassword(bytes32 password){\r\n        require(!(password == 0x0), 'Invalid password');\r\n        _;\r\n    }\r\n\r\n    modifier onlyCorrectEmail(bytes32 email){\r\n        require(users[msg.sender].email == email, \"Incorrect email\");\r\n        _;\r\n    }\r\n\r\n    modifier onlyCorrectPassword(bytes32 password){\r\n        require(users[msg.sender].password == password, \"Incorrect password\");\r\n        _;\r\n    }\r\n\r\n    function login(bytes32 email, bytes32 password) public view onlyExistingUser onlyCorrectEmail(email) onlyCorrectPassword(password)  returns (bytes32 name) {\r\n        return (users[msg.sender].name);\r\n    }\r\n\r\n    function getUser(address u) public view onlyOwner returns (bytes32 name, bytes32 email, bytes32 password, bytes32 key, bytes16 iv ){\r\n        return (users[u].name, users[u].email, users[u].password, users[u].key, users[u].iv);\r\n    } \r\n\r\n    function signup(bytes32 name, bytes32 email, bytes32 password) public onlyValidName(name) returns (bytes32 username) {\r\n        // Check if user exists.\r\n        // If yes, return user name.\r\n        // If no, check if name was sent.\r\n        // If yes, create and return user.\r\n\r\n        if (users[msg.sender].name == 0x0)\r\n        {\r\n            users[msg.sender].name = name;\r\n            users[msg.sender].email = email;\r\n            users[msg.sender].password = password;\r\n            return (users[msg.sender].name);\r\n        }\r\n\r\n        return (users[msg.sender].name);\r\n    }\r\n    \r\n    function setKey(address _user, bytes32 _key, bytes16 _iv) public onlyOwner {\r\n        users[_user].key = _key;\r\n        users[_user].iv = _iv;\r\n    }\r\n\r\n    function getKey(address _user, address accessor) public view onlyOwner onlyAuthorizedAccessor(_user, accessor)  returns(bytes32, bytes16) {\r\n        return (users[_user].key, users[_user].iv);\r\n    }\r\n\r\n    // add modifier to check existence of accessor\r\n\r\n    function removeAccessor(address accessor, bytes32 password) public onlyExistingAccessor(accessor) onlyValidPassword(password) onlyCorrectPassword(password) {\r\n        users[msg.sender].accessors[accessor].authorized = false;\r\n    }\r\n\r\n    function addAccessor(address accessor, bytes32 password) public onlyExistingAccessor(accessor) onlyValidPassword(password) onlyCorrectPassword(password) {\r\n        users[msg.sender].accessors[accessor].authorized = true;\r\n    }\r\n\r\n    function getAccessorAuthorization(address _user, address accessor) public view onlyOwner returns (bool authorized){\r\n        if (_user == accessor){\r\n            return true;\r\n        }\r\n        return users[_user].accessors[accessor].authorized;\r\n    }\r\n}",
  "sourcePath": "C:\\Users\\35383\\Documents\\Final Year Project\\DigitalHealth\\truffle\\contracts\\DigitalHealth.sol",
  "compiler": {
    "name": "solc",
    "version": "0.8.13+commit.abaa5c0e.Emscripten.clang"
  },
  "schemaVersion": "3.4.16",
  "updatedAt": "2024-03-20T17:33:41.392Z",
  "networkType": "ethereum",
  "devdoc": {
    "kind": "dev",
    "methods": {},
    "version": 1
  },
  "userdoc": {
    "kind": "user",
    "methods": {},
    "version": 1
  }
}