{
  "contractName": "DigitalHealth",
  "abi": [
    {
      "inputs": [
        {
          "internalType": "string",
          "name": "source",
          "type": "string"
        }
      ],
      "name": "stringToBytes32",
      "outputs": [
        {
          "internalType": "bytes32",
          "name": "result",
          "type": "bytes32"
        }
      ],
      "stateMutability": "pure",
      "type": "function"
    },
    {
      "inputs": [
        {
          "internalType": "bytes32",
          "name": "password",
          "type": "bytes32"
        }
      ],
      "name": "login",
      "outputs": [
        {
          "internalType": "bytes32",
          "name": "name",
          "type": "bytes32"
        }
      ],
      "stateMutability": "view",
      "type": "function"
    },
    {
      "inputs": [
        {
          "internalType": "bytes32",
          "name": "name",
          "type": "bytes32"
        }
      ],
      "name": "signup",
      "outputs": [
        {
          "internalType": "bytes32",
          "name": "",
          "type": "bytes32"
        }
      ],
      "stateMutability": "nonpayable",
      "type": "function"
    },
    {
      "inputs": [
        {
          "internalType": "bytes32",
          "name": "name",
          "type": "bytes32"
        }
      ],
      "name": "update",
      "outputs": [
        {
          "internalType": "bytes32",
          "name": "value",
          "type": "bytes32"
        }
      ],
      "stateMutability": "nonpayable",
      "type": "function"
    },
    {
      "inputs": [
        {
          "internalType": "address",
          "name": "_user",
          "type": "address"
        },
        {
          "internalType": "bytes32",
          "name": "_key",
          "type": "bytes32"
        }
      ],
      "name": "setKey",
      "outputs": [],
      "stateMutability": "nonpayable",
      "type": "function"
    },
    {
      "inputs": [
        {
          "internalType": "address",
          "name": "_user",
          "type": "address"
        },
        {
          "internalType": "uint8",
          "name": "_id",
          "type": "uint8"
        }
      ],
      "name": "getKey",
      "outputs": [
        {
          "internalType": "bytes32",
          "name": "",
          "type": "bytes32"
        }
      ],
      "stateMutability": "view",
      "type": "function"
    },
    {
      "inputs": [
        {
          "internalType": "address",
          "name": "_user",
          "type": "address"
        },
        {
          "internalType": "uint8",
          "name": "_id",
          "type": "uint8"
        }
      ],
      "name": "removeAccesser",
      "outputs": [],
      "stateMutability": "nonpayable",
      "type": "function"
    },
    {
      "inputs": [
        {
          "internalType": "address",
          "name": "_user",
          "type": "address"
        },
        {
          "internalType": "uint8",
          "name": "_id",
          "type": "uint8"
        }
      ],
      "name": "addAccesser",
      "outputs": [],
      "stateMutability": "nonpayable",
      "type": "function"
    },
    {
      "inputs": [
        {
          "internalType": "address",
          "name": "_user",
          "type": "address"
        },
        {
          "internalType": "uint8",
          "name": "_id",
          "type": "uint8"
        }
      ],
      "name": "getAccesser",
      "outputs": [
        {
          "components": [
            {
              "internalType": "bool",
              "name": "authorized",
              "type": "bool"
            }
          ],
          "internalType": "struct DigitalHealth.Doctor",
          "name": "",
          "type": "tuple"
        }
      ],
      "stateMutability": "view",
      "type": "function"
    }
  ],
  "bytecode": "0x608060405234801561001057600080fd5b506110ec806100206000396000f3fe608060405234801561001057600080fd5b50600436106100935760003560e01c80638b147245116100665780638b1472451461013057806394f4d55814610160578063b6e1a1e21461017c578063cfb51928146101ac578063fdad3cfd146101dc57610093565b80631de4bd9d1461009857806335d8df48146100b45780635c1397de146100d0578063879281c414610100575b600080fd5b6100b260048036038101906100ad9190610d05565b61020c565b005b6100ce60048036038101906100c99190610d7b565b61031f565b005b6100ea60048036038101906100e59190610dbb565b610404565b6040516100f79190610df7565b60405180910390f35b61011a60048036038101906101159190610dbb565b6105bb565b6040516101279190610df7565b60405180910390f35b61014a60048036038101906101459190610dbb565b6106da565b6040516101579190610df7565b60405180910390f35b61017a60048036038101906101759190610d05565b610853565b005b61019660048036038101906101919190610d05565b610966565b6040516101a39190610df7565b60405180910390f35b6101c660048036038101906101c19190610f58565b610af3565b6040516101d39190610df7565b60405180910390f35b6101f660048036038101906101f19190610d05565b610b1c565b6040516102039190610fd8565b60405180910390f35b816000808273ffffffffffffffffffffffffffffffffffffffff1673ffffffffffffffffffffffffffffffffffffffff16815260200190815260200160002060000160009054906101000a900473ffffffffffffffffffffffffffffffffffffffff1673ffffffffffffffffffffffffffffffffffffffff163373ffffffffffffffffffffffffffffffffffffffff16146102a657600080fd5b60016000808573ffffffffffffffffffffffffffffffffffffffff1673ffffffffffffffffffffffffffffffffffffffff16815260200190815260200160002060040160008460ff1660ff16815260200190815260200160002060000160006101000a81548160ff021916908315150217905550505050565b816000808273ffffffffffffffffffffffffffffffffffffffff1673ffffffffffffffffffffffffffffffffffffffff16815260200190815260200160002060000160009054906101000a900473ffffffffffffffffffffffffffffffffffffffff1673ffffffffffffffffffffffffffffffffffffffff163373ffffffffffffffffffffffffffffffffffffffff16146103b957600080fd5b816000808573ffffffffffffffffffffffffffffffffffffffff1673ffffffffffffffffffffffffffffffffffffffff16815260200190815260200160002060030181905550505050565b6000816000801b810361041657600080fd5b6000801b6000803373ffffffffffffffffffffffffffffffffffffffff1673ffffffffffffffffffffffffffffffffffffffff168152602001908152602001600020600101540361057057826000803373ffffffffffffffffffffffffffffffffffffffff1673ffffffffffffffffffffffffffffffffffffffff16815260200190815260200160002060010181905550336000803373ffffffffffffffffffffffffffffffffffffffff1673ffffffffffffffffffffffffffffffffffffffff16815260200190815260200160002060000160006101000a81548173ffffffffffffffffffffffffffffffffffffffff021916908373ffffffffffffffffffffffffffffffffffffffff1602179055506000803373ffffffffffffffffffffffffffffffffffffffff1673ffffffffffffffffffffffffffffffffffffffff1681526020019081526020016000206001015491506105b5565b6000803373ffffffffffffffffffffffffffffffffffffffff1673ffffffffffffffffffffffffffffffffffffffff1681526020019081526020016000206001015491505b50919050565b60008060001b6000803373ffffffffffffffffffffffffffffffffffffffff1673ffffffffffffffffffffffffffffffffffffffff1681526020019081526020016000206001015403610643576040517f08c379a000000000000000000000000000000000000000000000000000000000815260040161063a9061102a565b60405180910390fd5b816000803373ffffffffffffffffffffffffffffffffffffffff1673ffffffffffffffffffffffffffffffffffffffff16815260200190815260200160002060020154036106d4576000803373ffffffffffffffffffffffffffffffffffffffff1673ffffffffffffffffffffffffffffffffffffffff1681526020019081526020016000206001015490506106d5565b5b919050565b6000816000801b81036106ec57600080fd5b6000801b6000803373ffffffffffffffffffffffffffffffffffffffff1673ffffffffffffffffffffffffffffffffffffffff1681526020019081526020016000206001015403610772576040517f08c379a00000000000000000000000000000000000000000000000000000000081526004016107699061102a565b60405180910390fd5b6000801b6000803373ffffffffffffffffffffffffffffffffffffffff1673ffffffffffffffffffffffffffffffffffffffff168152602001908152602001600020600101541461084c57826000803373ffffffffffffffffffffffffffffffffffffffff1673ffffffffffffffffffffffffffffffffffffffff168152602001908152602001600020600101819055506000803373ffffffffffffffffffffffffffffffffffffffff1673ffffffffffffffffffffffffffffffffffffffff16815260200190815260200160002060010154915061084d565b5b50919050565b816000808273ffffffffffffffffffffffffffffffffffffffff1673ffffffffffffffffffffffffffffffffffffffff16815260200190815260200160002060000160009054906101000a900473ffffffffffffffffffffffffffffffffffffffff1673ffffffffffffffffffffffffffffffffffffffff163373ffffffffffffffffffffffffffffffffffffffff16146108ed57600080fd5b60008060008573ffffffffffffffffffffffffffffffffffffffff1673ffffffffffffffffffffffffffffffffffffffff16815260200190815260200160002060040160008460ff1660ff16815260200190815260200160002060000160006101000a81548160ff021916908315150217905550505050565b600082826000808373ffffffffffffffffffffffffffffffffffffffff1673ffffffffffffffffffffffffffffffffffffffff16815260200190815260200160002060000160009054906101000a900473ffffffffffffffffffffffffffffffffffffffff1673ffffffffffffffffffffffffffffffffffffffff163373ffffffffffffffffffffffffffffffffffffffff1614610aa7576000808373ffffffffffffffffffffffffffffffffffffffff1673ffffffffffffffffffffffffffffffffffffffff16815260200190815260200160002060040160008260ff1660ff16815260200190815260200160002060000160009054906101000a900460ff16610aa6576040517f08c379a0000000000000000000000000000000000000000000000000000000008152600401610a9d90611096565b60405180910390fd5b5b6000808673ffffffffffffffffffffffffffffffffffffffff1673ffffffffffffffffffffffffffffffffffffffff168152602001908152602001600020600301549250505092915050565b6000808290506000815103610b0e576000801b915050610b17565b60208301519150505b919050565b610b24610c45565b826000808273ffffffffffffffffffffffffffffffffffffffff1673ffffffffffffffffffffffffffffffffffffffff16815260200190815260200160002060000160009054906101000a900473ffffffffffffffffffffffffffffffffffffffff1673ffffffffffffffffffffffffffffffffffffffff163373ffffffffffffffffffffffffffffffffffffffff1614610bbe57600080fd5b6000808573ffffffffffffffffffffffffffffffffffffffff1673ffffffffffffffffffffffffffffffffffffffff16815260200190815260200160002060040160008460ff1660ff1681526020019081526020016000206040518060200160405290816000820160009054906101000a900460ff16151515158152505091505092915050565b60405180602001604052806000151581525090565b6000604051905090565b600080fd5b600080fd5b600073ffffffffffffffffffffffffffffffffffffffff82169050919050565b6000610c9982610c6e565b9050919050565b610ca981610c8e565b8114610cb457600080fd5b50565b600081359050610cc681610ca0565b92915050565b600060ff82169050919050565b610ce281610ccc565b8114610ced57600080fd5b50565b600081359050610cff81610cd9565b92915050565b60008060408385031215610d1c57610d1b610c64565b5b6000610d2a85828601610cb7565b9250506020610d3b85828601610cf0565b9150509250929050565b6000819050919050565b610d5881610d45565b8114610d6357600080fd5b50565b600081359050610d7581610d4f565b92915050565b60008060408385031215610d9257610d91610c64565b5b6000610da085828601610cb7565b9250506020610db185828601610d66565b9150509250929050565b600060208284031215610dd157610dd0610c64565b5b6000610ddf84828501610d66565b91505092915050565b610df181610d45565b82525050565b6000602082019050610e0c6000830184610de8565b92915050565b600080fd5b600080fd5b6000601f19601f8301169050919050565b7f4e487b7100000000000000000000000000000000000000000000000000000000600052604160045260246000fd5b610e6582610e1c565b810181811067ffffffffffffffff82111715610e8457610e83610e2d565b5b80604052505050565b6000610e97610c5a565b9050610ea38282610e5c565b919050565b600067ffffffffffffffff821115610ec357610ec2610e2d565b5b610ecc82610e1c565b9050602081019050919050565b82818337600083830152505050565b6000610efb610ef684610ea8565b610e8d565b905082815260208101848484011115610f1757610f16610e17565b5b610f22848285610ed9565b509392505050565b600082601f830112610f3f57610f3e610e12565b5b8135610f4f848260208601610ee8565b91505092915050565b600060208284031215610f6e57610f6d610c64565b5b600082013567ffffffffffffffff811115610f8c57610f8b610c69565b5b610f9884828501610f2a565b91505092915050565b60008115159050919050565b610fb681610fa1565b82525050565b602082016000820151610fd26000850182610fad565b50505050565b6000602082019050610fed6000830184610fbc565b92915050565b600082825260208201905092915050565b50565b6000611014600083610ff3565b915061101f82611004565b600082019050919050565b6000602082019050818103600083015261104381611007565b9050919050565b7f4f6e6c7920417574686f72697a6564204163636573736f720000000000000000600082015250565b6000611080601883610ff3565b915061108b8261104a565b602082019050919050565b600060208201905081810360008301526110af81611073565b905091905056fea2646970667358221220a2ade949d7af7105dd30ae31a80d56fd0fc05c850a92c8d2e6457d6949e626ac64736f6c634300080d0033",
  "immutableReferences": {},
  "source": "// SPDX-License-Identifier: MIT\r\npragma solidity ^0.8.13;\r\n\r\nimport \"./Ownable.sol\";\r\n\r\ncontract DigitalHealth {\r\n    \r\n    struct Doctor {\r\n        bool authorized;\r\n    }\r\n\r\n    struct User {\r\n        address owner;\r\n        bytes32 name;\r\n        bytes32 password;\r\n        bytes32 key;\r\n        mapping(uint8 => Doctor) doctors;\r\n    }\r\n\r\n    mapping (address => User) private users;\r\n\r\n    uint private id; // Stores user id temporarily\r\n\r\n    function stringToBytes32(string memory source) public pure returns (bytes32 result) {\r\n        bytes memory tempEmptyStringTest = bytes(source);\r\n        if (tempEmptyStringTest.length == 0) {\r\n            return 0x0;\r\n        }\r\n\r\n        assembly {\r\n            result := mload(add(source, 32))\r\n        }\r\n    }\r\n\r\n    // Authentication\r\n    modifier onlyValidName(bytes32 name) {\r\n        // Only valid names allowed\r\n\r\n        require(!(name == 0x0));\r\n        _;\r\n    }\r\n\r\n    modifier onlyExistingUser() {\r\n        // Check if user exists or terminate\r\n\r\n        require(!(users[msg.sender].name == 0x0), \"\");\r\n        _;\r\n    }\r\n\r\n    function login(bytes32 password) view public onlyExistingUser  returns (bytes32 name) {\r\n        if (users[msg.sender].password == password)\r\n            return (users[msg.sender].name);\r\n    }\r\n\r\n    function signup(bytes32 name) public onlyValidName(name) returns (bytes32) {\r\n        // Check if user exists.\r\n        // If yes, return user name.\r\n        // If no, check if name was sent.\r\n        // If yes, create and return user.\r\n\r\n        if (users[msg.sender].name == 0x0)\r\n        {\r\n            users[msg.sender].name = name;\r\n    \t    users[msg.sender].owner = msg.sender; \r\n            return (users[msg.sender].name);\r\n        }\r\n\r\n        return (users[msg.sender].name);\r\n    }\r\n\r\n    function update(bytes32 name) public onlyValidName(name) onlyExistingUser returns (bytes32 value) {\r\n        // Update user name.\r\n        if (users[msg.sender].name != 0x0)\r\n        {\r\n            users[msg.sender].name = name;\r\n\r\n            return (users[msg.sender].name);\r\n        }\r\n    }\r\n    \r\n    function setKey(address _user, bytes32 _key) public onlyOwner(_user) {\r\n        users[_user].key = _key;\r\n    }\r\n\r\n    function getKey(address _user, uint8 _id) public view onlyAuthorizedAccesser(_user, _id) returns(bytes32) {\r\n        return users[_user].key;\r\n    }\r\n\r\n    function removeAccesser(address _user, uint8 _id) public onlyOwner(_user) {\r\n        users[_user].doctors[_id].authorized = false;\r\n    }\r\n\r\n    function addAccesser(address _user, uint8 _id) public onlyOwner(_user) {\r\n        users[_user].doctors[_id].authorized = true;\r\n    }\r\n\r\n    function getAccesser(address _user, uint8 _id) public view onlyOwner(_user) returns (Doctor memory ){\r\n        return users[_user].doctors[_id];\r\n    }\r\n\r\n    modifier onlyOwner(address _user) {\r\n        require(msg.sender == users[_user].owner);\r\n        _;\r\n    }\r\n\r\n    modifier onlyAuthorizedAccesser(address _user, uint8 _id){\r\n        if (msg.sender != users[_user].owner){\r\n            require(users[_user].doctors[_id].authorized, \"Only Authorized Accessor\");\r\n        }\r\n        _;\r\n    }\r\n}",
  "sourcePath": "C:\\Users\\35383\\Documents\\Final Year Project\\DigitalHealth\\webapp\\truffle\\contracts\\DigitalHealth.sol",
  "compiler": {
    "name": "solc",
    "version": "0.8.13+commit.abaa5c0e.Emscripten.clang"
  },
  "schemaVersion": "3.4.16",
  "updatedAt": "2023-12-02T11:13:43.198Z",
  "devdoc": {
    "kind": "dev",
    "methods": {},
    "version": 1
  },
  "userdoc": {
    "kind": "user",
    "methods": {},
    "version": 1
  }
}