{
  "contractName": "DigitalHealth",
  "abi": [
    {
      "inputs": [
        {
          "internalType": "string",
          "name": "source",
          "type": "string"
        }
      ],
      "name": "stringToBytes32",
      "outputs": [
        {
          "internalType": "bytes32",
          "name": "result",
          "type": "bytes32"
        }
      ],
      "stateMutability": "pure",
      "type": "function",
      "constant": true
    },
    {
      "inputs": [
        {
          "internalType": "bytes32",
          "name": "password",
          "type": "bytes32"
        }
      ],
      "name": "login",
      "outputs": [
        {
          "internalType": "bytes32",
          "name": "name",
          "type": "bytes32"
        }
      ],
      "stateMutability": "view",
      "type": "function",
      "constant": true
    },
    {
      "inputs": [
        {
          "internalType": "bytes32",
          "name": "name",
          "type": "bytes32"
        },
        {
          "internalType": "bytes32",
          "name": "password",
          "type": "bytes32"
        }
      ],
      "name": "signup",
      "outputs": [
        {
          "internalType": "bytes32",
          "name": "",
          "type": "bytes32"
        }
      ],
      "stateMutability": "nonpayable",
      "type": "function"
    },
    {
      "inputs": [
        {
          "internalType": "bytes32",
          "name": "name",
          "type": "bytes32"
        }
      ],
      "name": "update",
      "outputs": [
        {
          "internalType": "bytes32",
          "name": "value",
          "type": "bytes32"
        }
      ],
      "stateMutability": "nonpayable",
      "type": "function"
    },
    {
      "inputs": [
        {
          "internalType": "address",
          "name": "_user",
          "type": "address"
        },
        {
          "internalType": "bytes32",
          "name": "_key",
          "type": "bytes32"
        }
      ],
      "name": "setKey",
      "outputs": [],
      "stateMutability": "nonpayable",
      "type": "function"
    },
    {
      "inputs": [
        {
          "internalType": "address",
          "name": "_user",
          "type": "address"
        },
        {
          "internalType": "uint8",
          "name": "_id",
          "type": "uint8"
        }
      ],
      "name": "getKey",
      "outputs": [
        {
          "internalType": "bytes32",
          "name": "",
          "type": "bytes32"
        }
      ],
      "stateMutability": "view",
      "type": "function",
      "constant": true
    },
    {
      "inputs": [
        {
          "internalType": "address",
          "name": "_user",
          "type": "address"
        },
        {
          "internalType": "uint8",
          "name": "_id",
          "type": "uint8"
        }
      ],
      "name": "removeAccesser",
      "outputs": [],
      "stateMutability": "nonpayable",
      "type": "function"
    },
    {
      "inputs": [
        {
          "internalType": "address",
          "name": "_user",
          "type": "address"
        },
        {
          "internalType": "uint8",
          "name": "_id",
          "type": "uint8"
        }
      ],
      "name": "addAccesser",
      "outputs": [],
      "stateMutability": "nonpayable",
      "type": "function"
    },
    {
      "inputs": [
        {
          "internalType": "address",
          "name": "_user",
          "type": "address"
        },
        {
          "internalType": "uint8",
          "name": "_id",
          "type": "uint8"
        }
      ],
      "name": "getAccesser",
      "outputs": [
        {
          "components": [
            {
              "internalType": "bool",
              "name": "authorized",
              "type": "bool"
            }
          ],
          "internalType": "struct DigitalHealth.Doctor",
          "name": "",
          "type": "tuple"
        }
      ],
      "stateMutability": "view",
      "type": "function",
      "constant": true
    }
  ],
  "bytecode": "0x608060405234801561001057600080fd5b506112b7806100206000396000f3fe608060405234801561001057600080fd5b50600436106100935760003560e01c806394f4d5581161006657806394f4d55814610130578063b6e1a1e21461014c578063cfb519281461017c578063f8538662146101ac578063fdad3cfd146101dc57610093565b80631de4bd9d1461009857806335d8df48146100b4578063879281c4146100d05780638b14724514610100575b600080fd5b6100b260048036038101906100ad9190610e24565b61020c565b005b6100ce60048036038101906100c99190610e9a565b610355565b005b6100ea60048036038101906100e59190610eda565b610470565b6040516100f79190610f16565b60405180910390f35b61011a60048036038101906101159190610eda565b61058f565b6040516101279190610f16565b60405180910390f35b61014a60048036038101906101459190610e24565b610708565b005b61016660048036038101906101619190610e24565b610851565b6040516101739190610f16565b60405180910390f35b61019660048036038101906101919190611077565b6109de565b6040516101a39190610f16565b60405180910390f35b6101c660048036038101906101c191906110c0565b610a07565b6040516101d39190610f16565b60405180910390f35b6101f660048036038101906101f19190610e24565b610c05565b6040516102039190611137565b60405180910390f35b816000808273ffffffffffffffffffffffffffffffffffffffff1673ffffffffffffffffffffffffffffffffffffffff16815260200190815260200160002060000160009054906101000a900473ffffffffffffffffffffffffffffffffffffffff1673ffffffffffffffffffffffffffffffffffffffff163373ffffffffffffffffffffffffffffffffffffffff16146102dc576040517f08c379a00000000000000000000000000000000000000000000000000000000081526004016102d3906111af565b60405180910390fd5b60016000808573ffffffffffffffffffffffffffffffffffffffff1673ffffffffffffffffffffffffffffffffffffffff16815260200190815260200160002060040160008460ff1660ff16815260200190815260200160002060000160006101000a81548160ff021916908315150217905550505050565b816000808273ffffffffffffffffffffffffffffffffffffffff1673ffffffffffffffffffffffffffffffffffffffff16815260200190815260200160002060000160009054906101000a900473ffffffffffffffffffffffffffffffffffffffff1673ffffffffffffffffffffffffffffffffffffffff163373ffffffffffffffffffffffffffffffffffffffff1614610425576040517f08c379a000000000000000000000000000000000000000000000000000000000815260040161041c906111af565b60405180910390fd5b816000808573ffffffffffffffffffffffffffffffffffffffff1673ffffffffffffffffffffffffffffffffffffffff16815260200190815260200160002060030181905550505050565b60008060001b6000803373ffffffffffffffffffffffffffffffffffffffff1673ffffffffffffffffffffffffffffffffffffffff16815260200190815260200160002060010154036104f8576040517f08c379a00000000000000000000000000000000000000000000000000000000081526004016104ef906111f5565b60405180910390fd5b816000803373ffffffffffffffffffffffffffffffffffffffff1673ffffffffffffffffffffffffffffffffffffffff1681526020019081526020016000206002015403610589576000803373ffffffffffffffffffffffffffffffffffffffff1673ffffffffffffffffffffffffffffffffffffffff16815260200190815260200160002060010154905061058a565b5b919050565b6000816000801b81036105a157600080fd5b6000801b6000803373ffffffffffffffffffffffffffffffffffffffff1673ffffffffffffffffffffffffffffffffffffffff1681526020019081526020016000206001015403610627576040517f08c379a000000000000000000000000000000000000000000000000000000000815260040161061e906111f5565b60405180910390fd5b6000801b6000803373ffffffffffffffffffffffffffffffffffffffff1673ffffffffffffffffffffffffffffffffffffffff168152602001908152602001600020600101541461070157826000803373ffffffffffffffffffffffffffffffffffffffff1673ffffffffffffffffffffffffffffffffffffffff168152602001908152602001600020600101819055506000803373ffffffffffffffffffffffffffffffffffffffff1673ffffffffffffffffffffffffffffffffffffffff168152602001908152602001600020600101549150610702565b5b50919050565b816000808273ffffffffffffffffffffffffffffffffffffffff1673ffffffffffffffffffffffffffffffffffffffff16815260200190815260200160002060000160009054906101000a900473ffffffffffffffffffffffffffffffffffffffff1673ffffffffffffffffffffffffffffffffffffffff163373ffffffffffffffffffffffffffffffffffffffff16146107d8576040517f08c379a00000000000000000000000000000000000000000000000000000000081526004016107cf906111af565b60405180910390fd5b60008060008573ffffffffffffffffffffffffffffffffffffffff1673ffffffffffffffffffffffffffffffffffffffff16815260200190815260200160002060040160008460ff1660ff16815260200190815260200160002060000160006101000a81548160ff021916908315150217905550505050565b600082826000808373ffffffffffffffffffffffffffffffffffffffff1673ffffffffffffffffffffffffffffffffffffffff16815260200190815260200160002060000160009054906101000a900473ffffffffffffffffffffffffffffffffffffffff1673ffffffffffffffffffffffffffffffffffffffff163373ffffffffffffffffffffffffffffffffffffffff1614610992576000808373ffffffffffffffffffffffffffffffffffffffff1673ffffffffffffffffffffffffffffffffffffffff16815260200190815260200160002060040160008260ff1660ff16815260200190815260200160002060000160009054906101000a900460ff16610991576040517f08c379a000000000000000000000000000000000000000000000000000000000815260040161098890611261565b60405180910390fd5b5b6000808673ffffffffffffffffffffffffffffffffffffffff1673ffffffffffffffffffffffffffffffffffffffff168152602001908152602001600020600301549250505092915050565b60008082905060008151036109f9576000801b915050610a02565b60208301519150505b919050565b6000826000801b8103610a1957600080fd5b6000801b6000803373ffffffffffffffffffffffffffffffffffffffff1673ffffffffffffffffffffffffffffffffffffffff1681526020019081526020016000206001015403610bb957836000803373ffffffffffffffffffffffffffffffffffffffff1673ffffffffffffffffffffffffffffffffffffffff16815260200190815260200160002060010181905550826000803373ffffffffffffffffffffffffffffffffffffffff1673ffffffffffffffffffffffffffffffffffffffff16815260200190815260200160002060020181905550336000803373ffffffffffffffffffffffffffffffffffffffff1673ffffffffffffffffffffffffffffffffffffffff16815260200190815260200160002060000160006101000a81548173ffffffffffffffffffffffffffffffffffffffff021916908373ffffffffffffffffffffffffffffffffffffffff1602179055506000803373ffffffffffffffffffffffffffffffffffffffff1673ffffffffffffffffffffffffffffffffffffffff168152602001908152602001600020600101549150610bfe565b6000803373ffffffffffffffffffffffffffffffffffffffff1673ffffffffffffffffffffffffffffffffffffffff1681526020019081526020016000206001015491505b5092915050565b610c0d610d64565b826000808273ffffffffffffffffffffffffffffffffffffffff1673ffffffffffffffffffffffffffffffffffffffff16815260200190815260200160002060000160009054906101000a900473ffffffffffffffffffffffffffffffffffffffff1673ffffffffffffffffffffffffffffffffffffffff163373ffffffffffffffffffffffffffffffffffffffff1614610cdd576040517f08c379a0000000000000000000000000000000000000000000000000000000008152600401610cd4906111af565b60405180910390fd5b6000808573ffffffffffffffffffffffffffffffffffffffff1673ffffffffffffffffffffffffffffffffffffffff16815260200190815260200160002060040160008460ff1660ff1681526020019081526020016000206040518060200160405290816000820160009054906101000a900460ff16151515158152505091505092915050565b60405180602001604052806000151581525090565b6000604051905090565b600080fd5b600080fd5b600073ffffffffffffffffffffffffffffffffffffffff82169050919050565b6000610db882610d8d565b9050919050565b610dc881610dad565b8114610dd357600080fd5b50565b600081359050610de581610dbf565b92915050565b600060ff82169050919050565b610e0181610deb565b8114610e0c57600080fd5b50565b600081359050610e1e81610df8565b92915050565b60008060408385031215610e3b57610e3a610d83565b5b6000610e4985828601610dd6565b9250506020610e5a85828601610e0f565b9150509250929050565b6000819050919050565b610e7781610e64565b8114610e8257600080fd5b50565b600081359050610e9481610e6e565b92915050565b60008060408385031215610eb157610eb0610d83565b5b6000610ebf85828601610dd6565b9250506020610ed085828601610e85565b9150509250929050565b600060208284031215610ef057610eef610d83565b5b6000610efe84828501610e85565b91505092915050565b610f1081610e64565b82525050565b6000602082019050610f2b6000830184610f07565b92915050565b600080fd5b600080fd5b6000601f19601f8301169050919050565b7f4e487b7100000000000000000000000000000000000000000000000000000000600052604160045260246000fd5b610f8482610f3b565b810181811067ffffffffffffffff82111715610fa357610fa2610f4c565b5b80604052505050565b6000610fb6610d79565b9050610fc28282610f7b565b919050565b600067ffffffffffffffff821115610fe257610fe1610f4c565b5b610feb82610f3b565b9050602081019050919050565b82818337600083830152505050565b600061101a61101584610fc7565b610fac565b90508281526020810184848401111561103657611035610f36565b5b611041848285610ff8565b509392505050565b600082601f83011261105e5761105d610f31565b5b813561106e848260208601611007565b91505092915050565b60006020828403121561108d5761108c610d83565b5b600082013567ffffffffffffffff8111156110ab576110aa610d88565b5b6110b784828501611049565b91505092915050565b600080604083850312156110d7576110d6610d83565b5b60006110e585828601610e85565b92505060206110f685828601610e85565b9150509250929050565b60008115159050919050565b61111581611100565b82525050565b602082016000820151611131600085018261110c565b50505050565b600060208201905061114c600083018461111b565b92915050565b600082825260208201905092915050565b7f4f6e6c79204f776e657200000000000000000000000000000000000000000000600082015250565b6000611199600a83611152565b91506111a482611163565b602082019050919050565b600060208201905081810360008301526111c88161118c565b9050919050565b50565b60006111df600083611152565b91506111ea826111cf565b600082019050919050565b6000602082019050818103600083015261120e816111d2565b9050919050565b7f4f6e6c7920417574686f72697a6564204163636573736f720000000000000000600082015250565b600061124b601883611152565b915061125682611215565b602082019050919050565b6000602082019050818103600083015261127a8161123e565b905091905056fea2646970667358221220008616931efab804105f921fb86d4fb0c802c0249b2190399a98f5e16798817864736f6c634300080d0033",
  "immutableReferences": {},
  "source": "// SPDX-License-Identifier: MIT\r\npragma solidity ^0.8.13;\r\n\r\ncontract DigitalHealth {\r\n    \r\n    struct Doctor {\r\n        bool authorized;\r\n    }\r\n\r\n    struct User {\r\n        address owner;\r\n        bytes32 name;\r\n        bytes32 password;\r\n        bytes32 key;\r\n        mapping(uint8 => Doctor) doctors;\r\n    }\r\n\r\n    mapping (address => User) private users;\r\n\r\n    uint private id; // Stores user id temporarily\r\n\r\n    function stringToBytes32(string memory source) public pure returns (bytes32 result) {\r\n        bytes memory tempEmptyStringTest = bytes(source);\r\n        if (tempEmptyStringTest.length == 0) {\r\n            return 0x0;\r\n        }\r\n\r\n        assembly {\r\n            result := mload(add(source, 32))\r\n        }\r\n    }\r\n\r\n    // Authentication\r\n    modifier onlyValidName(bytes32 name) {\r\n        // Only valid names allowed\r\n\r\n        require(!(name == 0x0));\r\n        _;\r\n    }\r\n\r\n    modifier onlyExistingUser() {\r\n        // Check if user exists or terminate\r\n\r\n        require(!(users[msg.sender].name == 0x0), \"\");\r\n        _;\r\n    }\r\n\r\n    function login(bytes32 password) view public onlyExistingUser  returns (bytes32 name) {\r\n        if (users[msg.sender].password == password)\r\n            return (users[msg.sender].name);\r\n    }\r\n\r\n    function signup(bytes32 name, bytes32 password) public onlyValidName(name) returns (bytes32) {\r\n        // Check if user exists.\r\n        // If yes, return user name.\r\n        // If no, check if name was sent.\r\n        // If yes, create and return user.\r\n\r\n        if (users[msg.sender].name == 0x0)\r\n        {\r\n            users[msg.sender].name = name;\r\n            users[msg.sender].password = password;\r\n    \t    users[msg.sender].owner = msg.sender; \r\n            return (users[msg.sender].name);\r\n        }\r\n\r\n        return (users[msg.sender].name);\r\n    }\r\n\r\n    function update(bytes32 name) public onlyValidName(name) onlyExistingUser returns (bytes32 value) {\r\n        // Update user name.\r\n        if (users[msg.sender].name != 0x0)\r\n        {\r\n            users[msg.sender].name = name;\r\n\r\n            return (users[msg.sender].name);\r\n        }\r\n    }\r\n    \r\n    function setKey(address _user, bytes32 _key) public onlyOwner(_user) {\r\n        users[_user].key = _key;\r\n    }\r\n\r\n    function getKey(address _user, uint8 _id) public view onlyAuthorizedAccesser(_user, _id) returns(bytes32) {\r\n        return users[_user].key;\r\n    }\r\n\r\n    function removeAccesser(address _user, uint8 _id) public onlyOwner(_user) {\r\n        users[_user].doctors[_id].authorized = false;\r\n    }\r\n\r\n    function addAccesser(address _user, uint8 _id) public onlyOwner(_user) {\r\n        users[_user].doctors[_id].authorized = true;\r\n    }\r\n\r\n    function getAccesser(address _user, uint8 _id) public view onlyOwner(_user) returns (Doctor memory ){\r\n        return users[_user].doctors[_id];\r\n    }\r\n\r\n    modifier onlyOwner(address _user) {\r\n        require(msg.sender == users[_user].owner, \"Only Owner\");\r\n        _;\r\n    }\r\n\r\n    modifier onlyAuthorizedAccesser(address _user, uint8 _id){\r\n        if (msg.sender != users[_user].owner){\r\n            require(users[_user].doctors[_id].authorized, \"Only Authorized Accessor\");\r\n        }\r\n        _;\r\n    }\r\n}",
  "sourcePath": "C:\\Users\\35383\\Documents\\Final Year Project\\DigitalHealth\\webapp\\truffle\\contracts\\DigitalHealth.sol",
  "compiler": {
    "name": "solc",
    "version": "0.8.13+commit.abaa5c0e.Emscripten.clang"
  },
  "schemaVersion": "3.4.16",
  "updatedAt": "2023-12-10T16:53:01.757Z",
  "networkType": "ethereum",
  "devdoc": {
    "kind": "dev",
    "methods": {},
    "version": 1
  },
  "userdoc": {
    "kind": "user",
    "methods": {},
    "version": 1
  }
}