{
  "contractName": "DigitalHealth",
  "abi": [
    {
      "inputs": [
        {
          "internalType": "string",
          "name": "source",
          "type": "string"
        }
      ],
      "name": "stringToBytes32",
      "outputs": [
        {
          "internalType": "bytes32",
          "name": "result",
          "type": "bytes32"
        }
      ],
      "stateMutability": "pure",
      "type": "function",
      "constant": true
    },
    {
      "inputs": [
        {
          "internalType": "bytes32",
          "name": "password",
          "type": "bytes32"
        }
      ],
      "name": "login",
      "outputs": [
        {
          "internalType": "bytes32",
          "name": "name",
          "type": "bytes32"
        }
      ],
      "stateMutability": "view",
      "type": "function",
      "constant": true
    },
    {
      "inputs": [
        {
          "internalType": "bytes32",
          "name": "name",
          "type": "bytes32"
        },
        {
          "internalType": "bytes32",
          "name": "email",
          "type": "bytes32"
        },
        {
          "internalType": "bytes32",
          "name": "password",
          "type": "bytes32"
        }
      ],
      "name": "signup",
      "outputs": [
        {
          "internalType": "bytes32",
          "name": "",
          "type": "bytes32"
        }
      ],
      "stateMutability": "nonpayable",
      "type": "function"
    },
    {
      "inputs": [
        {
          "internalType": "bytes32",
          "name": "name",
          "type": "bytes32"
        }
      ],
      "name": "update",
      "outputs": [
        {
          "internalType": "bytes32",
          "name": "value",
          "type": "bytes32"
        }
      ],
      "stateMutability": "nonpayable",
      "type": "function"
    },
    {
      "inputs": [
        {
          "internalType": "address",
          "name": "_user",
          "type": "address"
        },
        {
          "internalType": "bytes32",
          "name": "_key",
          "type": "bytes32"
        }
      ],
      "name": "setKey",
      "outputs": [],
      "stateMutability": "nonpayable",
      "type": "function"
    },
    {
      "inputs": [
        {
          "internalType": "address",
          "name": "_user",
          "type": "address"
        },
        {
          "internalType": "address",
          "name": "accessor",
          "type": "address"
        }
      ],
      "name": "getKey",
      "outputs": [
        {
          "internalType": "bytes32",
          "name": "",
          "type": "bytes32"
        }
      ],
      "stateMutability": "view",
      "type": "function",
      "constant": true
    },
    {
      "inputs": [
        {
          "internalType": "address",
          "name": "accessor",
          "type": "address"
        },
        {
          "internalType": "bytes32",
          "name": "password",
          "type": "bytes32"
        }
      ],
      "name": "removeAccessor",
      "outputs": [],
      "stateMutability": "nonpayable",
      "type": "function"
    },
    {
      "inputs": [
        {
          "internalType": "address",
          "name": "accessor",
          "type": "address"
        },
        {
          "internalType": "bytes32",
          "name": "password",
          "type": "bytes32"
        }
      ],
      "name": "addAccessor",
      "outputs": [],
      "stateMutability": "nonpayable",
      "type": "function"
    },
    {
      "inputs": [
        {
          "internalType": "address",
          "name": "_user",
          "type": "address"
        },
        {
          "internalType": "address",
          "name": "accessor",
          "type": "address"
        }
      ],
      "name": "getAccessor",
      "outputs": [
        {
          "components": [
            {
              "internalType": "bool",
              "name": "authorized",
              "type": "bool"
            }
          ],
          "internalType": "struct DigitalHealth.Doctor",
          "name": "",
          "type": "tuple"
        }
      ],
      "stateMutability": "view",
      "type": "function",
      "constant": true
    }
  ],
  "bytecode": "0x608060405234801561001057600080fd5b50336000806101000a81548173ffffffffffffffffffffffffffffffffffffffff021916908373ffffffffffffffffffffffffffffffffffffffff1602179055506112ad806100606000396000f3fe608060405234801561001057600080fd5b50600436106100935760003560e01c8063690419d411610066578063690419d414610130578063879281c41461014c5780638b1472451461017c578063bc298553146101ac578063cfb51928146101dc57610093565b80631012507d146100985780631a2dc634146100c857806335d8df48146100f857806356a5562214610114575b600080fd5b6100b260048036038101906100ad9190610de1565b61020c565b6040516100bf9190610e58565b60405180910390f35b6100e260048036038101906100dd9190610ea9565b61034f565b6040516100ef9190610f0b565b60405180910390f35b610112600480360381019061010d9190610f26565b61051a565b005b61012e60048036038101906101299190610f26565b61067a565b005b61014a60048036038101906101459190610f26565b6107f0565b005b61016660048036038101906101619190610f66565b610965565b6040516101739190610f0b565b60405180910390f35b61019660048036038101906101919190610f66565b610a87565b6040516101a39190610f0b565b60405180910390f35b6101c660048036038101906101c19190610de1565b610c04565b6040516101d39190610f0b565b60405180910390f35b6101f660048036038101906101f191906110d9565b610d31565b6040516102039190610f0b565b60405180910390f35b610214610d5a565b60008054906101000a900473ffffffffffffffffffffffffffffffffffffffff1673ffffffffffffffffffffffffffffffffffffffff163373ffffffffffffffffffffffffffffffffffffffff16146102a2576040517f08c379a00000000000000000000000000000000000000000000000000000000081526004016102999061117f565b60405180910390fd5b600160008473ffffffffffffffffffffffffffffffffffffffff1673ffffffffffffffffffffffffffffffffffffffff16815260200190815260200160002060040160008373ffffffffffffffffffffffffffffffffffffffff1673ffffffffffffffffffffffffffffffffffffffff1681526020019081526020016000206040518060200160405290816000820160009054906101000a900460ff161515151581525050905092915050565b6000836000801b810361036157600080fd5b6000801b600160003373ffffffffffffffffffffffffffffffffffffffff1673ffffffffffffffffffffffffffffffffffffffff16815260200190815260200160002060000154036104cc5784600160003373ffffffffffffffffffffffffffffffffffffffff1673ffffffffffffffffffffffffffffffffffffffff1681526020019081526020016000206000018190555083600160003373ffffffffffffffffffffffffffffffffffffffff1673ffffffffffffffffffffffffffffffffffffffff1681526020019081526020016000206001018190555082600160003373ffffffffffffffffffffffffffffffffffffffff1673ffffffffffffffffffffffffffffffffffffffff16815260200190815260200160002060020181905550600160003373ffffffffffffffffffffffffffffffffffffffff1673ffffffffffffffffffffffffffffffffffffffff168152602001908152602001600020600001549150610512565b600160003373ffffffffffffffffffffffffffffffffffffffff1673ffffffffffffffffffffffffffffffffffffffff1681526020019081526020016000206000015491505b509392505050565b6000801b600160003373ffffffffffffffffffffffffffffffffffffffff1673ffffffffffffffffffffffffffffffffffffffff16815260200190815260200160002060000154036105a1576040517f08c379a0000000000000000000000000000000000000000000000000000000008152600401610598906111eb565b60405180910390fd5b60008054906101000a900473ffffffffffffffffffffffffffffffffffffffff1673ffffffffffffffffffffffffffffffffffffffff163373ffffffffffffffffffffffffffffffffffffffff161461062f576040517f08c379a00000000000000000000000000000000000000000000000000000000081526004016106269061117f565b60405180910390fd5b80600160008473ffffffffffffffffffffffffffffffffffffffff1673ffffffffffffffffffffffffffffffffffffffff168152602001908152602001600020600301819055505050565b6000801b600160003373ffffffffffffffffffffffffffffffffffffffff1673ffffffffffffffffffffffffffffffffffffffff1681526020019081526020016000206000015403610701576040517f08c379a00000000000000000000000000000000000000000000000000000000081526004016106f8906111eb565b60405180910390fd5b8080600160003373ffffffffffffffffffffffffffffffffffffffff1673ffffffffffffffffffffffffffffffffffffffff168152602001908152602001600020600201541461075057600080fd5b6000600160003373ffffffffffffffffffffffffffffffffffffffff1673ffffffffffffffffffffffffffffffffffffffff16815260200190815260200160002060040160008573ffffffffffffffffffffffffffffffffffffffff1673ffffffffffffffffffffffffffffffffffffffff16815260200190815260200160002060000160006101000a81548160ff021916908315150217905550505050565b6000801b600160003373ffffffffffffffffffffffffffffffffffffffff1673ffffffffffffffffffffffffffffffffffffffff1681526020019081526020016000206000015403610877576040517f08c379a000000000000000000000000000000000000000000000000000000000815260040161086e906111eb565b60405180910390fd5b8080600160003373ffffffffffffffffffffffffffffffffffffffff1673ffffffffffffffffffffffffffffffffffffffff16815260200190815260200160002060020154146108c657600080fd5b60018060003373ffffffffffffffffffffffffffffffffffffffff1673ffffffffffffffffffffffffffffffffffffffff16815260200190815260200160002060040160008573ffffffffffffffffffffffffffffffffffffffff1673ffffffffffffffffffffffffffffffffffffffff16815260200190815260200160002060000160006101000a81548160ff021916908315150217905550505050565b60008060001b600160003373ffffffffffffffffffffffffffffffffffffffff1673ffffffffffffffffffffffffffffffffffffffff16815260200190815260200160002060000154036109ee576040517f08c379a00000000000000000000000000000000000000000000000000000000081526004016109e5906111eb565b60405180910390fd5b81600160003373ffffffffffffffffffffffffffffffffffffffff1673ffffffffffffffffffffffffffffffffffffffff1681526020019081526020016000206002015403610a8157600160003373ffffffffffffffffffffffffffffffffffffffff1673ffffffffffffffffffffffffffffffffffffffff168152602001908152602001600020600001549050610a82565b5b919050565b6000816000801b8103610a9957600080fd5b6000801b600160003373ffffffffffffffffffffffffffffffffffffffff1673ffffffffffffffffffffffffffffffffffffffff1681526020019081526020016000206000015403610b20576040517f08c379a0000000000000000000000000000000000000000000000000000000008152600401610b17906111eb565b60405180910390fd5b6000801b600160003373ffffffffffffffffffffffffffffffffffffffff1673ffffffffffffffffffffffffffffffffffffffff1681526020019081526020016000206000015414610bfd5782600160003373ffffffffffffffffffffffffffffffffffffffff1673ffffffffffffffffffffffffffffffffffffffff16815260200190815260200160002060000181905550600160003373ffffffffffffffffffffffffffffffffffffffff1673ffffffffffffffffffffffffffffffffffffffff168152602001908152602001600020600001549150610bfe565b5b50919050565b60008060009054906101000a900473ffffffffffffffffffffffffffffffffffffffff1673ffffffffffffffffffffffffffffffffffffffff163373ffffffffffffffffffffffffffffffffffffffff1614610c95576040517f08c379a0000000000000000000000000000000000000000000000000000000008152600401610c8c9061117f565b60405180910390fd5b8282610ca1828261020c565b60000151610ce4576040517f08c379a0000000000000000000000000000000000000000000000000000000008152600401610cdb90611257565b60405180910390fd5b600160008673ffffffffffffffffffffffffffffffffffffffff1673ffffffffffffffffffffffffffffffffffffffff168152602001908152602001600020600301549250505092915050565b6000808290506000815103610d4c576000801b915050610d55565b60208301519150505b919050565b60405180602001604052806000151581525090565b6000604051905090565b600080fd5b600080fd5b600073ffffffffffffffffffffffffffffffffffffffff82169050919050565b6000610dae82610d83565b9050919050565b610dbe81610da3565b8114610dc957600080fd5b50565b600081359050610ddb81610db5565b92915050565b60008060408385031215610df857610df7610d79565b5b6000610e0685828601610dcc565b9250506020610e1785828601610dcc565b9150509250929050565b60008115159050919050565b610e3681610e21565b82525050565b602082016000820151610e526000850182610e2d565b50505050565b6000602082019050610e6d6000830184610e3c565b92915050565b6000819050919050565b610e8681610e73565b8114610e9157600080fd5b50565b600081359050610ea381610e7d565b92915050565b600080600060608486031215610ec257610ec1610d79565b5b6000610ed086828701610e94565b9350506020610ee186828701610e94565b9250506040610ef286828701610e94565b9150509250925092565b610f0581610e73565b82525050565b6000602082019050610f206000830184610efc565b92915050565b60008060408385031215610f3d57610f3c610d79565b5b6000610f4b85828601610dcc565b9250506020610f5c85828601610e94565b9150509250929050565b600060208284031215610f7c57610f7b610d79565b5b6000610f8a84828501610e94565b91505092915050565b600080fd5b600080fd5b6000601f19601f8301169050919050565b7f4e487b7100000000000000000000000000000000000000000000000000000000600052604160045260246000fd5b610fe682610f9d565b810181811067ffffffffffffffff8211171561100557611004610fae565b5b80604052505050565b6000611018610d6f565b90506110248282610fdd565b919050565b600067ffffffffffffffff82111561104457611043610fae565b5b61104d82610f9d565b9050602081019050919050565b82818337600083830152505050565b600061107c61107784611029565b61100e565b90508281526020810184848401111561109857611097610f98565b5b6110a384828561105a565b509392505050565b600082601f8301126110c0576110bf610f93565b5b81356110d0848260208601611069565b91505092915050565b6000602082840312156110ef576110ee610d79565b5b600082013567ffffffffffffffff81111561110d5761110c610d7e565b5b611119848285016110ab565b91505092915050565b600082825260208201905092915050565b7f4f6e6c79206f776e657220616363657373000000000000000000000000000000600082015250565b6000611169601183611122565b915061117482611133565b602082019050919050565b600060208201905081810360008301526111988161115c565b9050919050565b7f5573657220646f6573206e6f7420657869737400000000000000000000000000600082015250565b60006111d5601383611122565b91506111e08261119f565b602082019050919050565b60006020820190508181036000830152611204816111c8565b9050919050565b7f4f6e6c7920417574686f72697a6564204163636573736f720000000000000000600082015250565b6000611241601883611122565b915061124c8261120b565b602082019050919050565b6000602082019050818103600083015261127081611234565b905091905056fea2646970667358221220df6faffe0ee15b935cb66eff2a6b745ba08e8553c9adec9bc9559ffb1735455464736f6c634300080d0033",
  "immutableReferences": {},
  "source": "// SPDX-License-Identifier: MIT\r\npragma solidity ^0.8.13;\r\n\r\nimport \"./Ownable.sol\";\r\n\r\ncontract DigitalHealth is Ownable {\r\n    \r\n    struct Doctor {\r\n        bool authorized;\r\n    }\r\n\r\n    struct User {\r\n        bytes32 name;\r\n        bytes32 email;\r\n        bytes32 password;\r\n        bytes32 key;\r\n        mapping(address => Doctor) doctors;\r\n    }\r\n\r\n    mapping (address => User) private users;\r\n\r\n    function stringToBytes32(string memory source) public pure returns (bytes32 result) {\r\n        bytes memory tempEmptyStringTest = bytes(source);\r\n        if (tempEmptyStringTest.length == 0) {\r\n            return 0x0;\r\n        }\r\n\r\n        assembly {\r\n            result := mload(add(source, 32))\r\n        }\r\n    }\r\n\r\n    // Authentication\r\n    modifier onlyValidName(bytes32 name) {\r\n        // Only valid names allowed\r\n        require(!(name == 0x0));\r\n        _;\r\n    }\r\n\r\n    modifier onlyExistingUser() {\r\n        // Check if user exists or terminate\r\n        require(!(users[msg.sender].name == 0x0), \"User does not exist\");\r\n        _;\r\n    }\r\n\r\n    modifier onlyAuthenticatedUser(bytes32 password){\r\n        require(users[msg.sender].password == password);\r\n        _;\r\n    }\r\n\r\n    function login(bytes32 password) view public onlyExistingUser returns (bytes32 name) {\r\n        if (users[msg.sender].password == password)\r\n            return (users[msg.sender].name);\r\n    }\r\n\r\n    function signup(bytes32 name, bytes32 email, bytes32 password) public onlyValidName(name) returns (bytes32) {\r\n        // Check if user exists.\r\n        // If yes, return user name.\r\n        // If no, check if name was sent.\r\n        // If yes, create and return user.\r\n\r\n        if (users[msg.sender].name == 0x0)\r\n        {\r\n            users[msg.sender].name = name;\r\n            users[msg.sender].email = email;\r\n            users[msg.sender].password = password;\r\n            return (users[msg.sender].name);\r\n        }\r\n\r\n        return (users[msg.sender].name);\r\n    }\r\n\r\n    function update(bytes32 name) public onlyValidName(name) onlyExistingUser returns (bytes32 value) {\r\n        // Update user name.\r\n        if (users[msg.sender].name != 0x0)\r\n        {\r\n            users[msg.sender].name = name;\r\n\r\n            return (users[msg.sender].name);\r\n        }\r\n    }\r\n    \r\n    function setKey(address _user, bytes32 _key) public onlyExistingUser onlyOwner {\r\n        users[_user].key = _key;\r\n    }\r\n\r\n    function getKey(address _user, address accessor) public view onlyOwner onlyAuthorizedAccessor(_user, accessor)  returns(bytes32) {\r\n        return users[_user].key;\r\n    }\r\n\r\n    function removeAccessor(address accessor, bytes32 password) public onlyExistingUser onlyAuthenticatedUser(password) {\r\n        users[msg.sender].doctors[accessor].authorized = false;\r\n    }\r\n\r\n    function addAccessor(address accessor, bytes32 password) public onlyExistingUser onlyAuthenticatedUser(password) {\r\n        users[msg.sender].doctors[accessor].authorized = true;\r\n    }\r\n\r\n    function getAccessor(address _user, address accessor) public view onlyOwner returns (Doctor memory ){\r\n        return users[_user].doctors[accessor];\r\n    }\r\n\r\n    modifier onlyAuthorizedAccessor(address _user, address accessor) {\r\n        require(getAccessor(_user, accessor).authorized, \"Only Authorized Accessor\");\r\n        _;\r\n    }\r\n}",
  "sourcePath": "C:\\Users\\35383\\Documents\\Final Year Project\\DigitalHealth\\webapp\\truffle\\contracts\\DigitalHealth.sol",
  "compiler": {
    "name": "solc",
    "version": "0.8.13+commit.abaa5c0e.Emscripten.clang"
  },
  "schemaVersion": "3.4.16",
  "updatedAt": "2023-12-29T17:59:12.743Z",
  "networkType": "ethereum",
  "devdoc": {
    "kind": "dev",
    "methods": {},
    "version": 1
  },
  "userdoc": {
    "kind": "user",
    "methods": {},
    "version": 1
  }
}