{
  "contractName": "DigitalHealth",
  "abi": [
    {
      "inputs": [
        {
          "internalType": "string",
          "name": "source",
          "type": "string"
        }
      ],
      "name": "stringToBytes32",
      "outputs": [
        {
          "internalType": "bytes32",
          "name": "result",
          "type": "bytes32"
        }
      ],
      "stateMutability": "pure",
      "type": "function"
    },
    {
      "inputs": [
        {
          "internalType": "bytes32",
          "name": "password",
          "type": "bytes32"
        }
      ],
      "name": "login",
      "outputs": [
        {
          "internalType": "bytes32",
          "name": "name",
          "type": "bytes32"
        }
      ],
      "stateMutability": "view",
      "type": "function"
    },
    {
      "inputs": [
        {
          "internalType": "bytes32",
          "name": "name",
          "type": "bytes32"
        },
        {
          "internalType": "bytes32",
          "name": "email",
          "type": "bytes32"
        },
        {
          "internalType": "bytes32",
          "name": "password",
          "type": "bytes32"
        }
      ],
      "name": "signup",
      "outputs": [
        {
          "internalType": "bytes32",
          "name": "",
          "type": "bytes32"
        }
      ],
      "stateMutability": "nonpayable",
      "type": "function"
    },
    {
      "inputs": [
        {
          "internalType": "bytes32",
          "name": "name",
          "type": "bytes32"
        }
      ],
      "name": "update",
      "outputs": [
        {
          "internalType": "bytes32",
          "name": "value",
          "type": "bytes32"
        }
      ],
      "stateMutability": "nonpayable",
      "type": "function"
    },
    {
      "inputs": [
        {
          "internalType": "address",
          "name": "_user",
          "type": "address"
        },
        {
          "internalType": "bytes32",
          "name": "_key",
          "type": "bytes32"
        },
        {
          "internalType": "bytes16",
          "name": "_iv",
          "type": "bytes16"
        }
      ],
      "name": "setKey",
      "outputs": [],
      "stateMutability": "nonpayable",
      "type": "function"
    },
    {
      "inputs": [
        {
          "internalType": "address",
          "name": "_user",
          "type": "address"
        },
        {
          "internalType": "address",
          "name": "accessor",
          "type": "address"
        }
      ],
      "name": "getKey",
      "outputs": [
        {
          "internalType": "bytes32",
          "name": "",
          "type": "bytes32"
        },
        {
          "internalType": "bytes16",
          "name": "",
          "type": "bytes16"
        }
      ],
      "stateMutability": "view",
      "type": "function"
    },
    {
      "inputs": [
        {
          "internalType": "address",
          "name": "accessor",
          "type": "address"
        },
        {
          "internalType": "bytes32",
          "name": "password",
          "type": "bytes32"
        }
      ],
      "name": "removeAccessor",
      "outputs": [],
      "stateMutability": "nonpayable",
      "type": "function"
    },
    {
      "inputs": [
        {
          "internalType": "address",
          "name": "accessor",
          "type": "address"
        },
        {
          "internalType": "bytes32",
          "name": "password",
          "type": "bytes32"
        }
      ],
      "name": "addAccessor",
      "outputs": [],
      "stateMutability": "nonpayable",
      "type": "function"
    },
    {
      "inputs": [
        {
          "internalType": "address",
          "name": "_user",
          "type": "address"
        },
        {
          "internalType": "address",
          "name": "accessor",
          "type": "address"
        }
      ],
      "name": "getAccessor",
      "outputs": [
        {
          "components": [
            {
              "internalType": "bool",
              "name": "authorized",
              "type": "bool"
            }
          ],
          "internalType": "struct DigitalHealth.Doctor",
          "name": "",
          "type": "tuple"
        }
      ],
      "stateMutability": "view",
      "type": "function"
    }
  ],
  "bytecode": "0x608060405234801561001057600080fd5b50336000806101000a81548173ffffffffffffffffffffffffffffffffffffffff021916908373ffffffffffffffffffffffffffffffffffffffff16021790555061154f806100606000396000f3fe608060405234801561001057600080fd5b50600436106100935760003560e01c8063690419d411610066578063690419d414610130578063879281c41461014c5780638b1472451461017c578063bc298553146101ac578063cfb51928146101dd57610093565b8063035675c5146100985780631012507d146100b45780631a2dc634146100e457806356a5562214610114575b600080fd5b6100b260048036038101906100ad9190610fc2565b61020d565b005b6100ce60048036038101906100c99190611015565b6103d8565b6040516100db919061108c565b60405180910390f35b6100fe60048036038101906100f991906110a7565b61051b565b60405161010b9190611109565b60405180910390f35b61012e60048036038101906101299190611124565b6106e6565b005b61014a60048036038101906101459190611124565b6108a3565b005b61016660048036038101906101619190611164565b610a5f565b6040516101739190611109565b60405180910390f35b61019660048036038101906101919190611164565b610b87565b6040516101a39190611109565b60405180910390f35b6101c660048036038101906101c19190611015565b610d04565b6040516101d49291906111a0565b60405180910390f35b6101f760048036038101906101f2919061130f565b610e84565b6040516102049190611109565b60405180910390f35b6000801b600160003373ffffffffffffffffffffffffffffffffffffffff1673ffffffffffffffffffffffffffffffffffffffff1681526020019081526020016000206000015403610294576040517f08c379a000000000000000000000000000000000000000000000000000000000815260040161028b906113b5565b60405180910390fd5b60008054906101000a900473ffffffffffffffffffffffffffffffffffffffff1673ffffffffffffffffffffffffffffffffffffffff163373ffffffffffffffffffffffffffffffffffffffff1614610322576040517f08c379a000000000000000000000000000000000000000000000000000000000815260040161031990611421565b60405180910390fd5b81600160008573ffffffffffffffffffffffffffffffffffffffff1673ffffffffffffffffffffffffffffffffffffffff1681526020019081526020016000206003018190555080600160008573ffffffffffffffffffffffffffffffffffffffff1673ffffffffffffffffffffffffffffffffffffffff16815260200190815260200160002060040160006101000a8154816fffffffffffffffffffffffffffffffff021916908360801c0217905550505050565b6103e0610ead565b60008054906101000a900473ffffffffffffffffffffffffffffffffffffffff1673ffffffffffffffffffffffffffffffffffffffff163373ffffffffffffffffffffffffffffffffffffffff161461046e576040517f08c379a000000000000000000000000000000000000000000000000000000000815260040161046590611421565b60405180910390fd5b600160008473ffffffffffffffffffffffffffffffffffffffff1673ffffffffffffffffffffffffffffffffffffffff16815260200190815260200160002060050160008373ffffffffffffffffffffffffffffffffffffffff1673ffffffffffffffffffffffffffffffffffffffff1681526020019081526020016000206040518060200160405290816000820160009054906101000a900460ff161515151581525050905092915050565b6000836000801b810361052d57600080fd5b6000801b600160003373ffffffffffffffffffffffffffffffffffffffff1673ffffffffffffffffffffffffffffffffffffffff16815260200190815260200160002060000154036106985784600160003373ffffffffffffffffffffffffffffffffffffffff1673ffffffffffffffffffffffffffffffffffffffff1681526020019081526020016000206000018190555083600160003373ffffffffffffffffffffffffffffffffffffffff1673ffffffffffffffffffffffffffffffffffffffff1681526020019081526020016000206001018190555082600160003373ffffffffffffffffffffffffffffffffffffffff1673ffffffffffffffffffffffffffffffffffffffff16815260200190815260200160002060020181905550600160003373ffffffffffffffffffffffffffffffffffffffff1673ffffffffffffffffffffffffffffffffffffffff1681526020019081526020016000206000015491506106de565b600160003373ffffffffffffffffffffffffffffffffffffffff1673ffffffffffffffffffffffffffffffffffffffff1681526020019081526020016000206000015491505b509392505050565b6000801b600160003373ffffffffffffffffffffffffffffffffffffffff1673ffffffffffffffffffffffffffffffffffffffff168152602001908152602001600020600001540361076d576040517f08c379a0000000000000000000000000000000000000000000000000000000008152600401610764906113b5565b60405180910390fd5b806000801b81036107b3576040517f08c379a00000000000000000000000000000000000000000000000000000000081526004016107aa9061148d565b60405180910390fd5b8180600160003373ffffffffffffffffffffffffffffffffffffffff1673ffffffffffffffffffffffffffffffffffffffff168152602001908152602001600020600201541461080257600080fd5b6000600160003373ffffffffffffffffffffffffffffffffffffffff1673ffffffffffffffffffffffffffffffffffffffff16815260200190815260200160002060050160008673ffffffffffffffffffffffffffffffffffffffff1673ffffffffffffffffffffffffffffffffffffffff16815260200190815260200160002060000160006101000a81548160ff02191690831515021790555050505050565b6000801b600160003373ffffffffffffffffffffffffffffffffffffffff1673ffffffffffffffffffffffffffffffffffffffff168152602001908152602001600020600001540361092a576040517f08c379a0000000000000000000000000000000000000000000000000000000008152600401610921906113b5565b60405180910390fd5b806000801b8103610970576040517f08c379a00000000000000000000000000000000000000000000000000000000081526004016109679061148d565b60405180910390fd5b8180600160003373ffffffffffffffffffffffffffffffffffffffff1673ffffffffffffffffffffffffffffffffffffffff16815260200190815260200160002060020154146109bf57600080fd5b60018060003373ffffffffffffffffffffffffffffffffffffffff1673ffffffffffffffffffffffffffffffffffffffff16815260200190815260200160002060050160008673ffffffffffffffffffffffffffffffffffffffff1673ffffffffffffffffffffffffffffffffffffffff16815260200190815260200160002060000160006101000a81548160ff02191690831515021790555050505050565b60008060001b600160003373ffffffffffffffffffffffffffffffffffffffff1673ffffffffffffffffffffffffffffffffffffffff1681526020019081526020016000206000015403610ae8576040517f08c379a0000000000000000000000000000000000000000000000000000000008152600401610adf906113b5565b60405180910390fd5b81600160003373ffffffffffffffffffffffffffffffffffffffff1673ffffffffffffffffffffffffffffffffffffffff1681526020019081526020016000206002015403610b7b57600160003373ffffffffffffffffffffffffffffffffffffffff1673ffffffffffffffffffffffffffffffffffffffff168152602001908152602001600020600001549050610b82565b6000801b90505b919050565b6000816000801b8103610b9957600080fd5b6000801b600160003373ffffffffffffffffffffffffffffffffffffffff1673ffffffffffffffffffffffffffffffffffffffff1681526020019081526020016000206000015403610c20576040517f08c379a0000000000000000000000000000000000000000000000000000000008152600401610c17906113b5565b60405180910390fd5b6000801b600160003373ffffffffffffffffffffffffffffffffffffffff1673ffffffffffffffffffffffffffffffffffffffff1681526020019081526020016000206000015414610cfd5782600160003373ffffffffffffffffffffffffffffffffffffffff1673ffffffffffffffffffffffffffffffffffffffff16815260200190815260200160002060000181905550600160003373ffffffffffffffffffffffffffffffffffffffff1673ffffffffffffffffffffffffffffffffffffffff168152602001908152602001600020600001549150610cfe565b5b50919050565b60008060008054906101000a900473ffffffffffffffffffffffffffffffffffffffff1673ffffffffffffffffffffffffffffffffffffffff163373ffffffffffffffffffffffffffffffffffffffff1614610d95576040517f08c379a0000000000000000000000000000000000000000000000000000000008152600401610d8c90611421565b60405180910390fd5b8383610da182826103d8565b60000151610de4576040517f08c379a0000000000000000000000000000000000000000000000000000000008152600401610ddb906114f9565b60405180910390fd5b600160008773ffffffffffffffffffffffffffffffffffffffff1673ffffffffffffffffffffffffffffffffffffffff16815260200190815260200160002060030154600160008873ffffffffffffffffffffffffffffffffffffffff1673ffffffffffffffffffffffffffffffffffffffff16815260200190815260200160002060040160009054906101000a900460801b9350935050509250929050565b6000808290506000815103610e9f576000801b915050610ea8565b60208301519150505b919050565b60405180602001604052806000151581525090565b6000604051905090565b600080fd5b600080fd5b600073ffffffffffffffffffffffffffffffffffffffff82169050919050565b6000610f0182610ed6565b9050919050565b610f1181610ef6565b8114610f1c57600080fd5b50565b600081359050610f2e81610f08565b92915050565b6000819050919050565b610f4781610f34565b8114610f5257600080fd5b50565b600081359050610f6481610f3e565b92915050565b60007fffffffffffffffffffffffffffffffff0000000000000000000000000000000082169050919050565b610f9f81610f6a565b8114610faa57600080fd5b50565b600081359050610fbc81610f96565b92915050565b600080600060608486031215610fdb57610fda610ecc565b5b6000610fe986828701610f1f565b9350506020610ffa86828701610f55565b925050604061100b86828701610fad565b9150509250925092565b6000806040838503121561102c5761102b610ecc565b5b600061103a85828601610f1f565b925050602061104b85828601610f1f565b9150509250929050565b60008115159050919050565b61106a81611055565b82525050565b6020820160008201516110866000850182611061565b50505050565b60006020820190506110a16000830184611070565b92915050565b6000806000606084860312156110c0576110bf610ecc565b5b60006110ce86828701610f55565b93505060206110df86828701610f55565b92505060406110f086828701610f55565b9150509250925092565b61110381610f34565b82525050565b600060208201905061111e60008301846110fa565b92915050565b6000806040838503121561113b5761113a610ecc565b5b600061114985828601610f1f565b925050602061115a85828601610f55565b9150509250929050565b60006020828403121561117a57611179610ecc565b5b600061118884828501610f55565b91505092915050565b61119a81610f6a565b82525050565b60006040820190506111b560008301856110fa565b6111c26020830184611191565b9392505050565b600080fd5b600080fd5b6000601f19601f8301169050919050565b7f4e487b7100000000000000000000000000000000000000000000000000000000600052604160045260246000fd5b61121c826111d3565b810181811067ffffffffffffffff8211171561123b5761123a6111e4565b5b80604052505050565b600061124e610ec2565b905061125a8282611213565b919050565b600067ffffffffffffffff82111561127a576112796111e4565b5b611283826111d3565b9050602081019050919050565b82818337600083830152505050565b60006112b26112ad8461125f565b611244565b9050828152602081018484840111156112ce576112cd6111ce565b5b6112d9848285611290565b509392505050565b600082601f8301126112f6576112f56111c9565b5b813561130684826020860161129f565b91505092915050565b60006020828403121561132557611324610ecc565b5b600082013567ffffffffffffffff81111561134357611342610ed1565b5b61134f848285016112e1565b91505092915050565b600082825260208201905092915050565b7f5573657220646f6573206e6f7420657869737400000000000000000000000000600082015250565b600061139f601383611358565b91506113aa82611369565b602082019050919050565b600060208201905081810360008301526113ce81611392565b9050919050565b7f4f6e6c79206f776e657220616363657373000000000000000000000000000000600082015250565b600061140b601183611358565b9150611416826113d5565b602082019050919050565b6000602082019050818103600083015261143a816113fe565b9050919050565b7f496e76616c69642070617373776f726400000000000000000000000000000000600082015250565b6000611477601083611358565b915061148282611441565b602082019050919050565b600060208201905081810360008301526114a68161146a565b9050919050565b7f4f6e6c7920417574686f72697a6564204163636573736f720000000000000000600082015250565b60006114e3601883611358565b91506114ee826114ad565b602082019050919050565b60006020820190508181036000830152611512816114d6565b905091905056fea264697066735822122086f59da732d98b904b33604cc967a357a924fe5b039fac86814de45698a2be4564736f6c634300080d0033",
  "immutableReferences": {},
  "source": "// SPDX-License-Identifier: MIT\r\npragma solidity ^0.8.13;\r\n\r\nimport \"./Ownable.sol\";\r\n\r\ncontract DigitalHealth is Ownable {\r\n    \r\n    struct Doctor {\r\n        bool authorized;\r\n    }\r\n\r\n    struct User {\r\n        bytes32 name;\r\n        bytes32 email;\r\n        bytes32 password;\r\n        bytes32 key;\r\n        bytes16 iv;\r\n        mapping(address => Doctor) doctors;\r\n    }\r\n\r\n    mapping (address => User) private users;\r\n\r\n    function stringToBytes32(string memory source) public pure returns (bytes32 result) {\r\n        bytes memory tempEmptyStringTest = bytes(source);\r\n        if (tempEmptyStringTest.length == 0) {\r\n            return 0x0;\r\n        }\r\n\r\n        assembly {\r\n            result := mload(add(source, 32))\r\n        }\r\n    }\r\n\r\n    // Authentication\r\n    modifier onlyValidName(bytes32 name) {\r\n        // Only valid names allowed\r\n        require(!(name == 0x0));\r\n        _;\r\n    }\r\n\r\n    modifier onlyExistingUser() {\r\n        // Check if user exists or terminate\r\n        require(!(users[msg.sender].name == 0x0), \"User does not exist\");\r\n        _;\r\n    }\r\n\r\n    modifier onlyAuthenticatedUser(bytes32 password){\r\n        require(users[msg.sender].password == password);\r\n        _;\r\n    }\r\n\r\n    function login(bytes32 password) view public onlyExistingUser returns (bytes32 name) {\r\n        if (users[msg.sender].password == password)\r\n            return (users[msg.sender].name);\r\n        return 0x0;\r\n    }\r\n\r\n    function signup(bytes32 name, bytes32 email, bytes32 password) public onlyValidName(name) returns (bytes32) {\r\n        // Check if user exists.\r\n        // If yes, return user name.\r\n        // If no, check if name was sent.\r\n        // If yes, create and return user.\r\n\r\n        if (users[msg.sender].name == 0x0)\r\n        {\r\n            users[msg.sender].name = name;\r\n            users[msg.sender].email = email;\r\n            users[msg.sender].password = password;\r\n            return (users[msg.sender].name);\r\n        }\r\n\r\n        return (users[msg.sender].name);\r\n    }\r\n\r\n    function update(bytes32 name) public onlyValidName(name) onlyExistingUser returns (bytes32 value) {\r\n        // Update user name.\r\n        if (users[msg.sender].name != 0x0)\r\n        {\r\n            users[msg.sender].name = name;\r\n\r\n            return (users[msg.sender].name);\r\n        }\r\n    }\r\n    \r\n    function setKey(address _user, bytes32 _key, bytes16 _iv) public onlyExistingUser onlyOwner {\r\n        users[_user].key = _key;\r\n        users[_user].iv = _iv;\r\n    }\r\n\r\n    function getKey(address _user, address accessor) public view onlyOwner onlyAuthorizedAccessor(_user, accessor)  returns(bytes32, bytes16) {\r\n        return (users[_user].key, users[_user].iv);\r\n    }\r\n\r\n    // add modifier to check existence of accessor\r\n\r\n    function removeAccessor(address accessor, bytes32 password) public onlyExistingUser onlyValidPassword(password) onlyAuthenticatedUser(password) {\r\n        users[msg.sender].doctors[accessor].authorized = false;\r\n    }\r\n\r\n    function addAccessor(address accessor, bytes32 password) public onlyExistingUser onlyValidPassword(password) onlyAuthenticatedUser(password) {\r\n        users[msg.sender].doctors[accessor].authorized = true;\r\n    }\r\n\r\n    function getAccessor(address _user, address accessor) public view onlyOwner returns (Doctor memory ){\r\n        return users[_user].doctors[accessor];\r\n    }\r\n\r\n    modifier onlyAuthorizedAccessor(address _user, address accessor) {\r\n        require(getAccessor(_user, accessor).authorized, \"Only Authorized Accessor\");\r\n        _;\r\n    }\r\n\r\n    modifier onlyValidPassword(bytes32 password){\r\n        require(!(password == 0x0), 'Invalid password');\r\n        _;\r\n    }\r\n\r\n\r\n}",
  "sourcePath": "C:\\Users\\35383\\Documents\\Final Year Project\\DigitalHealth\\webapp\\truffle\\contracts\\DigitalHealth.sol",
  "compiler": {
    "name": "solc",
    "version": "0.8.13+commit.abaa5c0e.Emscripten.clang"
  },
  "schemaVersion": "3.4.16",
  "updatedAt": "2023-12-30T22:47:25.135Z",
  "devdoc": {
    "kind": "dev",
    "methods": {},
    "version": 1
  },
  "userdoc": {
    "kind": "user",
    "methods": {},
    "version": 1
  }
}